:020000040800F2
:1000000010480020F5270008650C0008670C000860
:10001000690C00086B0C00086D0C00080000000063
:100020000000000000000000000000006F0C00084D
:10003000710C00080000000023BD0008511E0008DC
:100040000F2800080F2800080F2800080F280008B4
:100050000F2800080F2800080F2800080F280008A4
:100060000F2800080F2800080F2800080F28000894
:100070000F2800080F2800080F2800080F28000884
:100080000F2800080F2800080F2800080F28000874
:100090000F2800080F2800080F2800080F28000864
:1000A0000F2800080F2800080F2800080F28000854
:1000B0000F2800080F2800080F2800080F28000844
:1000C0000F2800080F2800080F2800080F28000834
:1000D0000F280008E12000080D220008FF23000877
:1000E0000F2800080F2800080F28000800F002F869
:1000F00000F0B0F80AA090E8000C82448344AAF112
:100100000107DA4501D100F0A5F8AFF2090EBAE80F
:100110000F0013F0010F18BFFB1A43F0010318473B
:10012000B4F00000D4F000000A444FF0000C10F8C6
:10013000013B13F0070408BF10F8014B1D1108BF65
:1001400010F8015B641E05D010F8016B641E01F805
:10015000016BF9D113F0080F1EBF10F8014BAD1C55
:100160000C1B09D16D1E58BF01F801CBFAD505E073
:1001700014F8016B01F8016B6D1EF9D59142D6D3CD
:10018000704700000023002400250026103A28BFF5
:1001900078C1FBD8520728BF30C148BF0B607047F9
:1001A0006E290AF06381702909F00B8666290EF02A
:1001B000A98065290EF0A68067290EF0A380612929
:1001C0000EF0A28003681B0A28BF41F08001692954
:1001D00009F07C85642909F07985752909F076850F
:1001E0006F290AF05A82782909F0D785E9290AF09F
:1001F000F581E4290AF0F281F5290AF0EF81EF296F
:100200000AF05782F82909F0D6850368DB0928BF70
:1002100041F0800163290AF0648173290AF0698141
:10022000E3290AF0A186F3290AF0A6860020704788
:100230001FB50BF0D3F80400002000210DF0BCF92D
:10024000401C6060002000210DF0A0F9E0601FBD9F
:1002500010B510BD0BF094F81146FFF7E9FF00F060
:10026000A0FC0BF071F903B4FFF7F2FF03BC01F03F
:100270001AFF0000ACB00024FE4F0DF13009FE4D16
:10028000FE4EA0460DF1A80A02F0AFFA03F0F8FD09
:100290002978491C297003F0F7FDF849F8483431F2
:1002A00001F0DAFB00B3641C0C2C04DD002000F02C
:1002B000B3FD87F8008006F12800CDF80C9007C840
:1002C0008DE8070006F118000FC801F0F7FC0CA933
:1002D000ECA001F0F2FE03F0D3FD2978491E11F0E5
:1002E000FF01297023D02AE0012000F095FDE149AB
:1002F0001C221031A1F10800CDE90A01DF4903A851
:10030000343109F07EFF06F1280007C88DE80700A8
:1003100006F118000FC801F009FC01203870D74819
:1003200000242AAA2146503007F0ACFAC3E7D74987
:10033000098821B103F0A8FD05F09CFA01E003F063
:10034000A3FD0023CDE9008A05221946184608F0CE
:1003500096FE99E78EB0C84C00250CAE4FF4FA77A4
:1003600002F043FA03F08CFD2178491C217003F060
:100370008BFDC248183001F0BEFCD8B9BD491C2223
:100380001031A1F10800CDE90A01BC4903A83431BC
:1003900009F037FFB94800F1280118300EC98DE87F
:1003A0000E000FC801F0C2FBB4480CAA0021503067
:1003B00007F068FA03F064FD2178491E11F0FF018F
:1003C000217007D1B149098821B103F05DFD05F025
:1003D00051FA01E003F058FDCDE9005600213B46FB
:1003E0000122084608F04BFEBAE70EB5A24CDFF832
:1003F0008482A74FDFF89C924FF0000A0DF1080BA2
:1004000002F0F3F903F03CFD2178491C217003F060
:100410003BFD01F0CFFAD8E9042305460E46002043
:100420009D490DF00FFE2A4633460DF00DF90022CE
:100430003B460DF0E1FB0DF04BFBB0FBF9F209FB85
:1004400012000DF089FB6FF002020DF091FF002207
:100450003B460DF0B5F90022904B0DF0F5F80DF08C
:1004600037FBC0B201F088FA03F00AFD2178491E7B
:1004700011F0FF01217007D18449098821B103F0EF
:1004800003FD05F0F7F901E003F0FEFC0022642310
:1004900011461046CDE900AB08F0F1FDB0E798B089
:1004A0004FF00108032502F0A0F917A800900023DF
:1004B00072481A461946503007F088F803F0E0FCFD
:1004C0006D490A78521C0A7003F0DEFC00F0EBFC68
:1004D000684E734F0022D6E902013B460DF08AFCBC
:1004E00006D2D6E902010DF0C3FA02466DA117E06B
:1004F000D6E902010022664B0DF07EFB00223B464E
:10050000C6E902010DF03CFB04D268A102A809F083
:1005100077FB08E0D6E902010DF0AAFA024664A1D1
:1005200002A809F06DFB0021102302AA084600F082
:1005300055FDD6E90401002213460DF05BFC1CD8E2
:100540005C4FD6E9040100223B460DF019FB14D89C
:10055000D6E904010022584B0DF04CFC05D265F39E
:100560000704002060F30F2423E0002060F3070459
:10057000D6E9040165F30F2477E0DFF83891D6E976
:10058000040100224B460DF035FC22D84B4FD6E932
:10059000040100223B460DF0F3FA1AD8D6E9040113
:1005A0000022474B0DF026FC0AD268F3070465F3DE
:1005B0000F24D6E90423002039460DF043FD54E012
:1005C000D6E9040165F3070468F30F2400224B46C3
:1005D000F3E7D6E9040100223A4B0DF00BFC1AD8E0
:1005E000394FD6E9040100223B460DF0C9FA12D872
:1005F000D6E904010022354B0DF0FCFB04D265F373
:10060000070468F30F24D4E768F3070465F30F24A5
:1006100000222A4B25E0D6E9040100222A4B0DF0E6
:10062000E9FB5CD8D6E90401002213460DF0A8FAD4
:1006300055D8D6E904010022254B0DF0DBFB09D289
:10064000002060F30704D6E9040165F30F2481F06C
:1006500000410AE0002065F3070460F30F2402461E
:100660004B46D6E904010CF0EFFF0DF001FA02460B
:1006700018A131E0000000200C030020F41B002032
:100680006C1C00202325730D0A000000D0020020FE
:1006900000408F40407E05000080764000001440FE
:1006A0000000F03F25646B6D000000003C316D00E0
:1006B00025646D0000805640008046400080664002
:1006C00000E06040008066C0008056C000E060C06E
:1006D000008046C02564000002A809F091FAE2B249
:1006E0000021302000F094FC04220021402000F082
:1006F0008FFCC4F307220021502000F089FC102356
:1007000002AA0021602000F069FC0522002170206F
:1007100000F07EFCF94A642442F210775069B0FB85
:10072000F4F104FB11018DF83C10B0FBF4F1B1FBC6
:10073000F4F3B0FBF7F004FB13118DF840108DF8C3
:100740004400106912ABB0FBF7F1B1FBF4F204FB0B
:1007500012118DF84810B0FBF4F1B1FBF4F204FB78
:100760001219B0FBF4F104FB110611AA10A90FA88D
:1007700001F015FFE14A1C325069B0FBF4F104FBB3
:1007800011018DF84C10B0FBF4F1B1FBF4F3B0FBA8
:10079000F7F004FB13118DF850108DF85400106918
:1007A00016ABB0FBF7F1B1FBF4F204FB12118DF8BC
:1007B0005810B0FBF4F1B1FBF4F204FB1217B0FBDC
:1007C000F4F104FB110415AA14A913A801F0E7FE23
:1007D0009DF83C2042F2107002FB00F19DF84000B1
:1007E000864600EBC00303EB001001EB80019DF88F
:1007F000440042F21073834601449DF84C00824647
:1008000058439DF8503003EBC30C0CEB031C00EB7A
:100810008C0C9DF854008444614524D19DF84820F7
:1008200042F2107002FB00F109EBC90303EB09105F
:1008300001EB800000EB06039DF8580042F21071B6
:1008400007EBC70C00FB01F10CEB071C01EB8C0163
:1008500021448B4203D93B460246009401E04B46BB
:100860000096A7A107E002D95246009002E0734625
:10087000CDF800B0A6A102A809F0C2F90622022113
:10088000002000F0C5FB07220221102000F0C0FB71
:1008900008220221202000F0BBFB102302AA022123
:1008A000302000F09BFB03F0EBFA9E4A1178491EC2
:1008B00011F0FF01117007D19B49098821B103F0A4
:1008C000E3FA04F0D7FF01E003F0DEFA002017A9F5
:1008D000CDE9000103460222014608F0D0FBE2E523
:1008E000ACB000F0ADFE854D904E0CAF8D4C183D78
:1008F0004FF000080DF1A80901F077FF00F02DFF7F
:10090000401C0CD0012000F07DFA03F0B9FA2178E8
:10091000491C217003F0B8FA307830B127E000208C
:1009200000F070FA00F08CFEEFE7744980481C314B
:1009300001F092F8D8B97D491C221031A1F10800CC
:10094000CDE90A016D4903A81C3109F05AFC05F1F3
:10095000280007C88DE8070005F118000FC801F04E
:10096000E5F866482AAA0021383006F08BFF01F02E
:100970003CFF05F12800039707C88DE8070005F143
:1009800018000FC801F09AF90CA800F0F9FD03F067
:1009900077FA2178491E11F0FF01217007D16249D1
:1009A000098821B103F070FA04F064FF01E003F05C
:1009B0006BFA0023022219461846CDE9008908F097
:1009C0005EFB99E72DE9F0478AB003F084F909A8A6
:1009D00007F013F8012109AA084604F0D6FB03F03A
:1009E0004FFADFF840A19AF80010491C8AF800106D
:1009F00003F04AFA414809AB01224EA1383006F013
:100A000014FD03260024CDE9064609AD4C494FF4F8
:100A100080774FF01908089505944FF00409234694
:100A2000AFF24312CDF80090CDE901184448CDE96A
:100A3000037444A1C43807F076FACDE90646802055
:100A40000C210895CDE90210414A05200594CDE915
:100A5000000204940023AFF2B9523D483DA1C438CE
:100A600007F061FACDE906463D4908950594002353
:100A7000AFF28962CDF80090CDE901183848CDE990
:100A8000037438A1C43807F04EFACDE90646384958
:100A9000089505940023AFF24372CDF80090CDE99C
:100AA00001183348CDE9037432A1C43807F03BFA8A
:100AB000CDE906463249089505940023AFF64B026E
:100AC000CDF80090CDE901182D48CDE903742DA192
:100AD000C43807F028FA03F0D3F99AF80010491E39
:100AE00011F0FF018AF8001052D10F49098821B195
:100AF00003F0CAF904F0BEFE4CE049E00C1C0020F3
:100B0000253032643A253032643A253032640000B0
:100B10003230253032642E253032642E2530326456
:100B2000000000000C030020D00200200000002084
:100B3000542000206F6C65645F73656D00000000D9
:100B4000FC0600204D515454207461736B0000006A
:100B5000C00B00204F4C4544207461736B000000B3
:100B6000840E002050574D207461736B000000000C
:100B700048130020475053207461736B000000003D
:100B80000C18002048433134207461736B0000005E
:100B900003F07AF909A9002007F0A6FA0AB0BDE827
:100BA000F08730B58BB04FF4A06001F043FE00F049
:100BB000B1F801F05BF901F0C7F900F04BFF00F06C
:100BC0006BFA00F003F900F039FD00F0EBFE00F0E5
:100BD0008FFE192001F0EEFD09A804F06CF903F076
:100BE0004FF91A4C2178491C217003F04DF900206F
:100BF00006AB09AA0321059083E8070080220C2395
:100C0000CDE90232124D04900346AFF24722CDE9FE
:100C1000001510A1A5F1C40007F085F903F030F923
:100C20002178491E11F0FF01217007D10C49098874
:100C300021B103F029F904F01DFE01E003F024F9CD
:100C400009A804F05EFB0BB0002030BD0C030020AF
:100C5000380400207374617274207461736B000037
:100C6000D00200207047FEE7FEE7FEE7FEE7704790
:100C7000704700000CB500224C48009201920168B8
:100C800041F4803101604FF4A063016801F4003148
:100C900001910099491C0091019911B9009999425B
:100CA000F3D10168890333D50121019140490A68D4
:100CB00042F010020A600A6822F003020A600A6821
:100CC00042F002020A604168416041684160416847
:100CD00041F480614160416821F47C1141604168C8
:100CE00041F4E8114160016841F0807101600168E0
:100CF0008901FCD5416821F003014160416841F060
:100D0000020141604168C1F381010229FAD10CBDA1
:100D100001920CBD254810B5016841F00101016048
:100D20004168244A114041600168234A1140016032
:100D3000016821F480210160416821F4FE014160D5
:100D40004FF41F018160FFF795FF1C494FF00060D1
:100D5000086010BD154A10B55068194B10F00C0111
:100D6000184803D0042901D0082901D0036012E0FB
:100D70005168536801F470114FF0020413F4803F7E
:100D800004EB914102D053689B0301D50E4B00E068
:100D90000B4B5943016051680A4AC1F30311121DFC
:100DA000515C0268CA40026010BD000000100240A1
:100DB000002002400000FFF8FFFFF6FE08ED00E013
:100DC00000127A001800002000093D0038B501210A
:100DD000042002F05AF910208DF8030003208DF84A
:100DE00002006020114CADF800006946204601F079
:100DF000D0FD2021204601F036FE4021204601F0A2
:100E000032FE38BD094A00284FF02001104601D0BB
:100E100001F02BBE01F027BE044A00284FF040012C
:100E2000104601D001F021BE01F01DBE00080140B6
:100E300013B54FF001036A4609B1402100E00021DB
:100E4000782000F06EFA1CBD10B50446B031C8B26F
:100E50000021FFF7EDFF102040EA14100021FFF7FA
:100E6000E7FF04F00F00BDE810400021E0E710B5F7
:100E700000218D20FFF7DCFF00211420FFF7D8FFB1
:100E80000021BDE81040AF20D2E710B500218D2031
:100E9000FFF7CEFF00211020FFF7CAFF0021BDE8B9
:100EA0001040AE20C4E770B5002505F1B000C0B217
:100EB0000021FFF7BDFF00210846FFF7B9FF002121
:100EC0001020FFF7B5FF002401210020FFF7B0FF3D
:100ED000641CE4B2802CF7D36D1CEDB2082DE4D372
:100EE00070BD2DE9F041203A00240F468046D5B26E
:100EF0007F2803D900208F1C8046FFB2102B394673
:100F000010D0FFF7A1FF964905EB450001EB400526
:100F10000121285DFFF78CFF641CE4B2062CF7D397
:100F2000BDE8F081FFF790FF8E4E04EB0510012124
:100F3000305CFFF77DFF641CE4B2082CF5D37F1C06
:100F4000F9B24046FFF780FF002404EB051030445F
:100F50000121007AFFF76CFF641CE4B2082CF4D383
:100F6000DEE70346012000E05843491EC9B2FBD228
:100F700070472DE9F05F0027DDF828A01D46914657
:100F80008B4680463C464FEA5A0623E0281B401E0B
:100F9000C1B20A20FFF7E5FFB9FBF0F00A21B0FB70
:100FA000F1F201FB120027B9691E8C4201DA38B157
:100FB00001273030C2B206FB0480C0B2534604E0C1
:100FC00006FB0480C0B2534620225946FFF789FF32
:100FD000641CE4B2AC42D9D3BDE8F09F2DE9F041E6
:100FE000984617460E46044600250DE04346314616
:100FF0002046FFF776FF0834E4B2782C02D90024AB
:10100000B61CF6B26D1CEDB27A5D002AEED187E710
:101010002DE9F04115460E460746FFF715FF5248E9
:10102000002400EB85150121285DFFF701FF641CFA
:10103000E4B2102CF7D3761CF1B23846FFF704FF68
:1010400000242819012190F82000FFF7F1FE641C0C
:10105000E4B2102CF5D363E72DE9F0471F46904624
:101060000E4682460025DDF8209011E031465046BC
:10107000FFF7EAFE544607E019F8050001216D1C50
:10108000FFF7D6FE641CE4B24445F5D3761CF6B2F5
:10109000BE42EBD3BDE8F08710B500F08DF84FF4F9
:1010A000487000F028FF0021AE20FFF7C1FE0021AC
:1010B0004020FFF7BDFE0021B020FFF7B9FE002160
:1010C000C820FFF7B5FE00218120FFF7B1FE002107
:1010D000FF20FFF7ADFE0021A120FFF7A9FE0021B0
:1010E000A620FFF7A5FE0021A820FFF7A1FE002102
:1010F0001F20FFF79DFE0021D320FFF799FE00215E
:101100000846FFF795FE0021D520FFF791FE00214C
:10111000F020FFF78DFE0021D920FFF789FE002186
:101120002220FFF785FE0021DA20FFF781FE002153
:101130000220FFF77DFE0021DB20FFF779FE002172
:101140004920FFF775FE00218D20FFF771FE002179
:101150001420FFF76DFE0021BDE81040AF2067E6C8
:10116000FCE3000824E600082C0000200221D548FA
:1011700001F065BCD34A10B500284FF002011046BB
:1011800002D001F070FC01E001F06FFCBDE81040FE
:10119000052000F091BECB4A10B500284FF00401A5
:1011A000104602D001F05FFC01E001F05EFCBDE8FA
:1011B0001040052000F080BE08B50121042001F098
:1011C00064FF0620ADF8000010208DF80300032016
:1011D0008DF802006946BB4801F0DBFB0120FFF7F8
:1011E000C9FF0120FFF7D7FF08BD08B50220ADF801
:1011F000000010208DF8030003208DF802006946DE
:10120000B04801F0C6FB08BD08B50220ADF80000EB
:1012100048208DF803006946AA4801F0BAFB08BDD2
:1012200010B5FFF7E2FF0120FFF7A4FF0120FFF751
:10123000B2FF0020FFF79EFFBDE810400020AAE7A4
:1012400010B5FFF7D2FF0020FFF794FF0020FFF753
:10125000A2FF0120FFF79FFFBDE81040012089E7B2
:1012600070B505460024FFF7C0FF0020FFF782FF9E
:101270000020FFF790FF05F08000FFF77BFF0120C3
:10128000FFF789FF0020FFF786FF6806641C050E44
:10129000E4B2082CEFD3BDE8704000206AE770B5D7
:1012A00000242546FFF7B0FF0020FFF774FF012060
:1012B000FFF771FF6806060EFFF758FF40EA0605C4
:1012C0000020FFF768FF641CE4B2082CEFD3284627
:1012D00070BD10B5FFF798FF0020FFF75CFF0120FD
:1012E000FFF759FFFFF742FF04460020FFF753FFC7
:1012F000204610BD10B50446FFF777FF0020FFF72A
:101300004AFF0020FFF736FF2046FFF733FF01209A
:10131000FFF741FF0020FFF73EFFBDE8104000202F
:1013200028E72DE9F0411D46164688460746002469
:1013300003F052FEFFF774FF3846FFF791FFFFF707
:10134000C8FF012807D04046FFF78AFFFFF7C1FF1B
:10135000012802D00BE05CA012E060A010E0305D3C
:10136000FFF77EFFFFF7B5FF012808D0641CAC42F1
:10137000F5DBFFF765FFBDE8F04103F038BE5CA088
:1013800008F032FCBDE8F0415AE72DE9F0411D4676
:10139000164688460746002403F01EFEFFF740FF6E
:1013A0003846FFF75DFFFFF794FF012812D0404653
:1013B000FFF756FFFFF78DFF01280DD0FFF730FF35
:1013C00047F00100FFF74CFFFFF783FF012805D02E
:1013D0006D1E10E03CA002E040A000E048A008F034
:1013E00003FCBDE8F0412BE7FFF759FF3055002023
:1013F000FFF780FF641CAC42F6DBFFF750FF30556F
:101400000120FFF777FFFFF71BFFBDE8F04103F076
:10141000EEBD2DE9F04115460E460746002403F0C7
:10142000DBFDFFF7FDFE3846FFF71AFFFFF751FF20
:10143000012809D124A010E0305DFFF711FFFFF76C
:1014400048FF012808D0641CAC42F5DBFFF7F8FE2A
:10145000BDE8F04103F0CBBD20A008F0C5FBBDE81E
:10146000F041EDE62DE9F04115460E460746002411
:1014700003F0B2FDFFF7D4FE47F00100FFF7F0FEE6
:10148000FFF727FF012801D06D1E0CE01CA008F01B
:10149000ABFBBDE8F041D3E6FFF701FF305500207C
:1014A000FFF728FF641CAC42F6DBFFF7F8FE30556F
:1014B0000120FFF71FFFFFF7C3FEBDE8F04103F077
:1014C00096BD0000000801406465765F6164647247
:1014D000206E6F2061636B0D0A0000006D656D5F0B
:1014E00061646472206E6F2061636B0D0A000000FE
:1014F000627566206E6F2061636B0D0A000000004C
:101500006465765F616464727C30783031206E6F20
:101510002061636B0D0A000010B5C821974808F0E0
:10152000A2FE97490020087010BD9549087830B197
:10153000944A1378984204D1002008707047012023
:1015400070471070FBE770B50E46C82400F016FF18
:1015500042F210750EE0FFF7E8FF40B931468748C8
:1015600008F0C8FD18B1FFF7D7FF002070BD28466E
:1015700000F0A2FC641EE4B2EDD24FF0FF3070BD6B
:10158000F0B5814E024603253078A7B02F1F40B139
:101590007EA1104608F0A8FD014619A808F0BCFD80
:1015A0000AE0384627B0F0BD79A119A808F0D8FDA7
:1015B000214619A808F0D4FD74A1002008F094FD7C
:1015C0000400F1D119AB73A275A1684608F018FBAD
:1015D00069467BA008F008FB7BA16846FFF7B3FFD4
:1015E00044F6206406E0204600F066FC76A16846DA
:1015F000FFF7A9FF0028D5D06D1E15F0FF05F2D129
:1016000000203070CDE770B571A504246EA1284686
:10161000FFF799FF764E06E0304600F04DFC6AA1D8
:101620002846FFF790FF002807D0641E14F0FF043F
:10163000F2D1554900200870401E70BD00F02EBE4A
:1016400070B59CB0642102A808F02FFEFFF764FF7C
:1016500000251BAC4FF4FA7607E00022CDE90054D8
:1016600033461146104607F00AFD57A161A0FFF767
:101670006AFF0028F1D151A160A0FFF764FF0022AA
:10168000CDE9005433461146104607F0F8FC4EA150
:101690005DA0FFF758FF0028F1D15FA361A263A10D
:1016A00002A808F0ADFA07E00022CDE90054334665
:1016B0001146104607F0E3FC62A102A8FFF743FFC2
:1016C0000028F1D13DA000903CA361A262A102A834
:1016D00008F096FA07E00022CDE90054334611469F
:1016E000104607F0CCFC38A102A8FFF72CFF002819
:1016F000F1D140F25B7363A266A102A808F080FA00
:101700000CE060A16AA0FFF71EFF68B10022CDE9DE
:10171000005433461146104607F0B1FC2AA102A836
:10172000FFF711FF0028ECD165A268A102A808F01C
:1017300067FA07E00022CDE900543346114610460F
:1017400007F09DFC20A102A8FFF7FDFE0028F1D1C3
:101750000D49012008701CB070BD0B4810B5007811
:101760004FF0FF3440B12FA15EA0FFF7ECFE18B19F
:10177000FFF749FF002800D0204610BD1C210020A3
:101780007C0200206C0200207B0200202C00000064
:101790005C2C0000706F736974696F6E5F420000AB
:1017A00041542B4D5154545055423D302C222573F9
:1017B000222C222573222C302C300D0A0000000030
:1017C00025730D0A000000004F4B0D0A00000000B9
:1017D00041542B4D5154545055423D302C22746588
:1017E0007374222C22222C302C300D0A00000000B1
:1017F000A086010041540D0A0000000041542B5204
:1018000053540D0A0000000041542B43574D4F44E0
:10181000453D310D0A000000313136343434323068
:1018200030330000746573740000000041542B4392
:10183000574A41503D222573222C222573220D0A3E
:1018400000000000474F542049500D0A00000000DE
:10185000636C69656E74000041542B4D51545455AE
:101860005345524346473D302C312C222573222CC0
:10187000222573222C222573222C302C302C22225C
:101880000D0A000033392E3130372E3232382E32E5
:101890003032000041542B4D515454434F4E4E3D75
:1018A000302C222573222C25642C300D0A000000D8
:1018B00041542B4D515454434F4E4E3F0D0A00009E
:1018C000706F736974696F6E5F41000041542B4DF6
:1018D0005154545355423D302C222573222C300D47
:1018E0000A00000041542B43574A41503F0D0A0063
:1018F00070B5012188B0084601F0D0FB0121042019
:1019000001F0C3FB18208DF81F000125ADF81C5015
:1019100003208DF81E0007A91A4801F03AF8AE0717
:10192000304601F06CFF0024ADF81640C720ADF83A
:101930001400ADF8124041F61F40ADF810008DF8CC
:10194000184004A9304601F087FC684601F011FFF9
:101950006020ADF800001920ADF80600ADF8084091
:10196000ADF802506946304601F0AFFC0121304627
:1019700001F01AFF08B070BD01464FF0804002F040
:1019800014B900000008014013B50146012301AA63
:101990003C20FFF7C6FC1CBD0623024603213C2069
:1019A000FFF7F3BC10B5FFF707FC0021BDE81040BE
:1019B0000220E9E72DE9FC47DFF88480DFF8849016
:1019C0006846FFF7E9FFBDF8000040BA0CF0C4F824
:1019D0000446BDF804000D4640BA0CF0BDF80646BA
:1019E0000F4600224346204629460CF003FA07D250
:1019F00000224B46204629460CF024FB04460D46A7
:101A000000224346304639460CF0F4F907D2002252
:101A10004B46304639460CF015FB06460F4622462B
:101A20002B46304639460AF041FF074A074B0CF077
:101A3000E3F802B00022BDE8F047054B0BF004BE0E
:101A4000C0FFDF40E0FFEF40775AF01ADCA54C40C2
:101A50000080664000F086BBF0B505460078B9B05E
:101A60000F464FF0FF3600285ED02946684608F042
:101A700053FB00242C70E0A1684608F035FB0500FC
:101A800052D0329433943494359437943694DAA106
:101A90000020389408F028FB0146284600F057FD46
:101AA000002841D1D5A1684608F01EFB00283BD094
:101AB00036AAD3A108F054FAD0A1002008F014FBF4
:101AC00032AACFA108F04CFACCA1002008F00CFB00
:101AD00033AACBA108F044FAC8A1002008F004FB07
:101AE00034AAC7A108F03CFAC4A1002008F0FCFA0F
:101AF00035AAC3A108F034FAC0A1002008F0F4FA16
:101B000037AABFA108F02CFA329868B1339858B1BF
:101B1000349848B1359838B11C2232A9384608F0BB
:101B200070FB002039B0F0BD3046FBE70FB42DE963
:101B3000FF5F054608469046DDF85CB0DDF854903E
:101B40000CF00AF80022AF4B0BF03AFE0646642474
:101B5000B5FBF4F004FB10500F460BF0FDFF3246CE
:101B60003B460BF071FD0022A74B0BF029FE064609
:101B7000B5FBF4F00F460BF0EFFF32463B460BF09F
:101B800063FD0BF02FFD824611980BF0E5FF00225C
:101B90009C4B0BF015FE0E46B8FBF4F1054604FB1A
:101BA00011800BF0D9FF2A4633460BF04DFD002281
:101BB000954B0BF005FE0546B8FBF4F00E460BF016
:101BC000CBFF2A4633460BF03FFD0BF00BFD804662
:101BD00016980BF0C1FF00228A4B0BF0F1FD0E4668
:101BE000B9FBF4F1054604FB11900BF0B5FF2A4652
:101BF00033460BF029FD0022834B0BF0E1FD054637
:101C0000B9FBF4F00E460BF0A7FF2A4633460BF063
:101C10001BFD0BF0E7FC054618980BF09DFF00221A
:101C2000784B0BF0CDFD0F46BBFBF4F1064604FBF1
:101C300011B00BF091FF32463B460BF005FD002240
:101C4000714B0BF0BDFD0646BBFBF4F00F460BF0ED
:101C500083FF32463B460BF0F7FC0BF0C3FC0CF065
:101C6000DBFA04460F4628460CF0D6FA06468946AB
:101C700040460CF0D1FA0546884650460CF0CCFAA6
:101C8000CDE90247CDE900698B46824643462A46A4
:101C900000F0D0FC1C9A4346C2E90001039700966D
:101CA000CDE901942A465046594600F02DFD1D9A73
:101CB000C2E90001BDE8FF1F5DF814FB70B586B0F6
:101CC0000646DDE90A500D9C03908DE80E00334670
:101CD0002A464EA1204607F093FF04A9204600F0B3
:101CE00021FC45A1204608F03BFA04A9204608F053
:101CF00037FA06B070BDF0B5B9B006464849684637
:101D000008F00AFA464800243BA10470684608F02F
:101D1000EBF907004FF0FF356BD0329433943494D5
:101D200035943794369434A10020389408F0DCF9C7
:101D30000146384600F00BFC00285AD168462FA116
:101D400008F0D8F9044636AA36A1401C08F008F974
:101D50002AA1601C08F0CEF928A1401C08F0CAF99D
:101D6000044640782C2844D033AB32AA2EA1601C04
:101D700008F0F6F821A1601C08F0BCF91FA1401C76
:101D800008F0B8F9044640782C2832D035AB34AA94
:101D900025A1601C08F0E4F818A1601C08F0AAF95D
:101DA00016A1401C08F0A6F914A1401C08F0A2F9E5
:101DB000044640782C281CD038AA1AA1601C08F0D0
:101DC000CFF80EA1601C08F095F937AA15A1401CA8
:101DD00008F0C6F8329860B1339850B1349840B1E9
:101DE000359830B11C2232A9304608F00AFA00209A
:101DF00098E6284696E600002A0000002C00000025
:101E0000257800000088C34000004E4025782C252E
:101E1000782C25782C25782C25782C257800000026
:101E2000FC1D00202564000025642E2564000000B0
:101E300008B5684603F042F908BD08B5684603F0E6
:101E400076F908BD08B56A46082107F0C9F808BD4B
:101E5000364810B50078012807D103F0BDF807F027
:101E60001CFABDE8104003F0C2B810BD10B56FF009
:101E7000040000F024FD2E482E492F4B0068304C02
:101E8000B0FBF1F2B0FBF1F01A702C4A1168B4FB10
:101E9000F1F1414310684FF47A72B2FBF0F05880D0
:101EA0004FF0E020026942F00202026141610169E3
:101EB00041F00101016110BDF8B54FF0E0270024A9
:101EC0007E691D49097800FB01F5684603F0F6F8C4
:101ED000B969B8698842FCD002D2A1EB000102E0E6
:101EE000A6EB000211440C440146AC42F1D3684613
:101EF00003F01DF9F8BD70B504460C48007878B1C0
:101F00001048007860B90C4D6888844203D3B4FB54
:101F1000F0F0FFF797FF6888B4FBF0F100FB114485
:101F20004FF47A706043BDE87040C5E7C5020020F9
:101F30001800002000127A006E02002008EE00084F
:101F400040420F00C402002030B5012187B0880351
:101F500001F09BF80121042001F097F818208DF87A
:101F600013004FF40070ADF810007A4D03248DF883
:101F7000124004A9284600F00CFD48218DF81310EA
:101F80002815ADF810008DF8124004A9284600F07D
:101F900000FD4FF41650009000200C21ADF80A10FF
:101FA000ADF806006C4CADF80C00ADF80800ADF8CB
:101FB00004006946204600F0F7FD012240F2255159
:101FC000204600F06EFE4FF4A06000F033FC2520A8
:101FD0008DF8140001218DF817108DF815108DF86B
:101FE000161005A800F02BFC0121204600F04FFE42
:101FF00007B030BD10B5584C0146204600F09DFE9C
:102000008021204600F0FAFE0028F9D010BD10B55E
:102010000446000EFFF7EEFFC4F30740FFF7EAFFA8
:10202000C4F30720FFF7E6FFE0B2BDE81040E1E7A8
:1020300070B50D460646002404E0305DFFF7DAFF78
:10204000641CA4B2AC42F8D370BD70B50546002440
:1020500003E0FFF7CFFF641CE4B2285D0028F8D14D
:1020600070BD0346012000E05843491EFCD2704772
:102070002DE9F04100240E4607460A250FE0311BEA
:102080000A20491EFFF7EDFFB7FBF0F0B0FBF5F1BA
:1020900005FB11003030FFF7ADFF641CE4B2B44221
:1020A000EDD3BDE8F08170472B490A885206FCD574
:1020B000294AC1B2121D118070470FB400B599B002
:1020C0001BAA68461A9907F07DFD6846FFF7BDFF19
:1020D00019B05DF814FB214800787047204870471C
:1020E0002DE9F04102F078FF1B4E40F225573946AA
:1020F000304600F08DFE01281AD1304600F021FE56
:10210000164C0025C0B22178C82900D325700D28AF
:102110000AD0232810D00A2810D02178C72903D24A
:102120000F4A5054491C21703946304600F08FFE4A
:10213000BDE8F04102F05BBF2570F5E70849227861
:10214000A1F1C80008F018F805482178C8384554AE
:10215000EAE7000000080140003801407202002058
:10216000341D002010B5012186B0480400F096FF10
:102170000121042000F089FF48208DF81700082075
:10218000ADF8140003208DF8160005A93F4800F0B3
:1021900000FC4FF41650009000200C21ADF80A10FE
:1021A000ADF806003A4CADF80C00ADF80800ADF8FB
:1021B00004006946204600F0F7FC012240F2255158
:1021C000204600F06EFD4FF4A06000F033FB2620A7
:1021D0008DF8100001218DF813108DF811108DF875
:1021E000121004A800F02BFB0121204600F04FFD47
:1021F00006B010BD0346012000E05843491EFCD242
:102200007047244800787047234870472DE9F04113
:1022100002F0E2FE1E4E40F225573946304600F0ED
:10222000F7FD01281AD1304600F08BFD194C00252E
:10223000C0B22178C82900D325700D280AD02428DF
:1022400010D0154A0A280FD02178C72902D250543D
:10225000491C21703946304600F0F9FDBDE8F041D7
:1022600002F0C5BE2570F5E7D0784D28F2D110797F
:102270004328EFD108492278A1F1C80007F07CFF7C
:1022800005482178C8384554E4E7000000080140BB
:102290000044004078020020C41E002030B5012117
:1022A00087B0880400F0FAFE0121082000F0EDFE5E
:1022B00018208DF813004FF48060ADF81000894DA0
:1022C00003248DF8124004A9284600F062FB48213F
:1022D0008DF81310E814ADF810008DF8124004A921
:1022E000284600F056FB4FF4E130009000200C210E
:1022F000ADF80A10ADF806007B4CADF80C00ADF857
:102300000800ADF804006946204600F04DFC0122AB
:1023100040F22551204600F0C4FC4FF4A06000F0CC
:1023200089FA27208DF8140001218DF817108DF8F7
:1023300015108DF8161005A800F081FA012120462D
:1023400000F0A5FC07B030BD10B5674C0146204633
:1023500000F0F3FC8021204600F050FD0028F9D069
:1023600010BD70B50D460646002404E0305DFFF751
:10237000EBFF641CA4B2AC42F8D370BD70B5054647
:10238000002403E0FFF7E0FF641CE4B2285D0028AE
:10239000F8D170BD0346012000E05843491EFCD22D
:1023A00070472DE9F04100240E4607460A250FE04C
:1023B000311B0A20491EFFF7EDFFB7FBF0F0B0FB21
:1023C000F5F105FB11003030FFF7BEFF641CE4B2ED
:1023D000B442EDD3BDE8F0810FB400B599B01BAAAB
:1023E00068461A9907F0EEFB6846FFF7C7FF19B079
:1023F0005DF814FB3D48407870473D4870472DE933
:10240000F04102F0E9FD384E40F225584146304691
:1024100000F0FEFC01281DD1304600F092FC334C48
:102420000025C0B26178C82900D36570304F2B28D1
:1024300004D00D280AD00A2813D001E0617869B1D0
:102440006178C72902D27854491C617041463046F0
:1024500000F0FDFCBDE8F04102F0C9BD0120207094
:10246000F4E72078012860783D5416D0E1780844DC
:10247000801CC72802D91F48E57005701C491D48FB
:1024800007F06EFE1CA11B4807F06AFEE078617839
:102490000844801CE0706570D8E718A1144807F064
:1024A00029FEB84213D119A1114807F023FE17A144
:1024B000401C07F01FFE15A1401C07F01BFE411C2D
:1024C000407858B10A48C83007F026FE06E010A14F
:1024D000074807F00FFEB84200D1A570657025705F
:1024E000B4E70000000C01400048004079020020E1
:1024F0008C1F00201C2100200D0A00004D51545457
:10250000535542524543563A000000002C0000004B
:102510004D515454444953434F4E4E454354454402
:102520003A00000030B400230D4600280DD0002DE5
:102530000BD0002201E062405B1CC45C002CFAD18D
:10254000284630BC92A107F05BBB30BC70477CB51D
:102550000E4601004FF000034FF0FF351DD0E6B1ED
:10256000002401E044405B1CC85C0028FAD12246EC
:1025700087A1684607F044FB3146684607F0BCFE79
:1025800000280BD0224684A1684607F039FB31466B
:10259000684607F0B1FE002800D028467CBD70B523
:1025A0001C780834E4B204F108051C70182D08D317
:1025B0001825B4FBF5F605FB16441C7013785B1C5C
:1025C00013700B780124022B1BD0012B23D0032B7B
:1025D00021D0052B1FD0072B1DD0082B1BD00A2B79
:1025E00019D00C2B17D013781E2B03D914700A782E
:1025F000521C0A7009780C2902D90178491C017013
:1026000070BD03789B07137802D01C2BEED870BDE9
:102610001D2BEBD870BD13781F2BE7D8EAE710B558
:102620005F4A604B0BF0E8FABDE8104000225E4BB9
:102630000BF0C6B82DE9FC5F0746DDE90C9688462D
:1026400092469B4648463146FFF7E9FF04460D4651
:1026500038464146FFF7E3FF22462B460BF0F2FCDB
:10266000CDE90001DDE90E01FFF7D9FF04460D4673
:1026700050465946FFF7D3FF22462B460BF0E2FCAB
:102680004FF0FF320BF074FE0AF00AFF00224FF009
:1026900080430AF019FA83468A4648463146FFF7D6
:1026A000BEFF0AF0C3F904460D4638464146FFF71F
:1026B000B6FF0AF0BBF92B4622460BF09DFA5A46AC
:1026C00053460BF099FA04460D46DDE900014FF040
:1026D000FF320BF04DFE0AF0E3FE00224FF0804384
:1026E0000AF0F2F922462B460AF0AEFF0AF028FF64
:1026F00009F094FE01220BF03BFE02B02B4ABDE82C
:10270000F05F2B4B0BF078BA2DE9FF5F82468B46CA
:10271000DDE91001CDE9020190469946504659463F
:10272000CDE900ABFFF786FF04460D46DDE90E015B
:10273000CDE90001CDE9028942464B465046594653
:10274000FFF778FFDDE9102306460F46404649466D
:102750000BF016FA01D285F00045DDE90E23504654
:1027600059460BF00DFA01D287F0004722462B465E
:10277000304639460AF09AF800220B4B0BF03CFA2F
:1027800004B0074ABDE8F05F064B0BF019B8000033
:10279000253032580000000025303278000000005B
:1027A00050455254FB210940008066408D976E12BF
:1027B00023EAB84010B5044645F2555001F02CFA12
:1027C000062001F02CFA20460BF0C6F90022084B37
:1027D0000BF012FA0BF07CF980B201F023FA01F051
:1027E00024FABDE8104001F025BA01F01EBA00003D
:1027F000008863400948804709480047FEE7FEE734
:10280000FEE7FEE7FEE7FEE7FEE7FEE7FEE7FEE7A0
:1028100004480549054A064B70470000150D00089D
:10282000ED00000810420020104800201044002055
:10283000104400202849084328490860704730B5F3
:102840000F23C27801780125F2B1244A126801F100
:10285000E02102F4E062C2F5E062120AC2F104046F
:10286000D3404278A24084781C401443220181F86E
:102870000024007800F01F018D404009800000F125
:10288000E020C0F8005130BD01F01F00854048092C
:10289000800000F1E020C0F8805130BD104A1140A6
:1028A00001430E48001F016070470C4A121D0029A9
:1028B000116801D0014300E08143116070474FF07F
:1028C000E0210428086903D020F004000861704763
:1028D00040F00400FAE700000000FA050CED00E00B
:1028E00080FFFF1F8F4910B5884206D101210420C7
:1028F00000F0DDFB002104203BE08B49884206D13B
:102900000121082000F0D3FB0021082031E0874995
:10291000884206D10121102000F0C9FB00211020BF
:1029200027E08349884206D10121202000F0BFFB27
:10293000002120201DE07F49884206D1012140204E
:1029400000F0B5FB0021402013E07B49884206D10E
:102950000121802000F0ABFB0021802009E07749B5
:1029600088420AD184150121204600F0A0FB0021F5
:102970002046BDE8104000F09ABB10BD10B5012103
:10298000084600F094FB0021BDE81040012000F053
:102990008EBBF0B5CC78002204F00F03E40601D51D
:1029A0008C7823430C784FF00F0C14F0FF0F4FF08E
:1029B000010E1BD005680E880EFA02F42640A642CE
:1029C00010D196000CFA06F725EA070703FA06F578
:1029D000CE783D43282E02D0482E02D002E044613A
:1029E00000E00461521C082AE5D305600A88FF2A2A
:1029F0001CD94468002202F108060EFA06F50E887A
:102A00002E40AE420ED196000CFA06F7BC4303FAF4
:102A100006F7CE783C43282E00D14561CE78482E6B
:102A200000D10561521C082AE5D34460F0BD4FF681
:102A3000FF710180022181700421C170704702463C
:102A4000002092680A4200D001207047806880B25E
:102A5000704702460020D2680A4200D00120704729
:102A6000C06880B2704701617047416170470AB128
:102A70000161704741617047C160704741F4803225
:102A80008261816182618169806970472C4B10B5D8
:102A90001A684FF68074224042EA0010084318601A
:102AA00010BD2849C8617047F0B5254C002801DAEF
:102AB000E36900E06368450D2E0185B2C0F301575C
:102AC000B540C0F30342032F05D0C6020AD5032642
:102AD0009640B34307E023F07062636823F07063AD
:102AE000636002E0AB4343F0706201B12A43002807
:102AF00001DAE261F0BD6260F0BD10B58A0721F035
:102B000003040F49120F21440F238C6893409C4308
:102B10008C608B68904003438B6010BD0949C1F8FD
:102B2000DC00704700080140000C0140001001402B
:102B30000014014000180140001C01400020014029
:102B40000000014000002042C44910B588420AD16B
:102B500001218C03204600F0AAFA2046BDE810406F
:102B6000002100F0A4BABE49884202D101214C04E0
:102B700010E0BC49884202D101218C040AE0BA4924
:102B8000884202D10121CC0404E0B84988420AD12C
:102B900001210C05204600F093FA2046BDE81040C4
:102BA000002100F08DBA10BD30B50446008A85B012
:102BB0000D464CF6FF710840E98801432182A08947
:102BC0004EF6F3110840A9882A8911436A89024305
:102BD0001143A181A08A4FF6FF410840A989014312
:102BE000A182684600F006FA9C48844201D103980D
:102BF00000E00298A189090400EBC00101EB00107C
:102C0000296801D5490000E08900B0FBF1F0642299
:102C1000B0FBF2F109010B096FF018056B4300EBF3
:102C20008300A3891D044FF0320306D503EBC000D7
:102C3000B0FBF2F000F0070005E003EB0010B0FB82
:102C4000F2F000F00F000843208105B030BD4FF4D2
:102C50001651016000218180C18001810C224281D6
:102C60008181704710B5028A4FF2FF031A400B882A
:102C70004C8823438C88C9880C4323431343038225
:102C800010BD0021018041808180C18070470029F2
:102C9000818902D041F4005101E021F40051818189
:102CA000704710B5C1F3421301F01F040121A14088
:102CB000012B07D0022B07D01430002A026805D060
:102CC0000A4304E00C30F8E71030F6E78A4302606C
:102CD00010BD002A828A01D00A4300E08A43828222
:102CE0007047028A22F00F020282028A0A4302829D
:102CF0007047828922F40062828182890A4382813C
:102D000070470029818902D041F0020101E021F0E1
:102D1000020181817047028A22F020020282028A27
:102D20000A43028270470029018A02D041F480419F
:102D300001E021F4804101827047C1F308018180E4
:102D400070478088C0F308007047818941F0010115
:102D500081817047028BD2B20283028B42EA012149
:102D600001837047028B02F47F420283028B0A4385
:102D7000028370470029818A02D041F0200101E0DE
:102D800021F02001818270470029818A02D041F020
:102D9000100101E021F01001818270470029818A31
:102DA00002D041F0080101E021F008018182704762
:102DB0000029818902D041F4004101E0C1F30E01F4
:102DC000818170470029818A02D041F4006101E0CD
:102DD00021F4006181827047828A22F0040282829B
:102DE000828A0A43828270470029818A02D041F098
:102DF000020101E021F002018182704702460020B9
:102E000012880A4200D001207047C94301807047F0
:102E100070B501F01F0501260024C1F3421306FA24
:102E200005F2012B0FD0022B0FD0838A4FEA11211C
:102E30000088134206FA01F600EA060001D000B14C
:102E40000124204670BD8389F0E7038AEEE70A0A71
:102E500001219140C94301807047000000380140C2
:102E60000044004000480040004C0040005000403A
:102E7000A548016841F0010101604168A34A114081
:102E800041600168A24A11400160016821F480217B
:102E90000160416821F4FE0141604FF41F0181602F
:102EA000704799490A6822F480320A600A6822F45D
:102EB00080220A60B0F5803F07D0B0F5802F03D1A3
:102EC000086840F4A02008607047086840F480302B
:102ED000F9E70346002059098B4A01290AD0022943
:102EE0000AD0516A03F01F02012393400B4200D025
:102EF000012070471168F5E7116AF3E718B5002063
:102F00004FF4A06400903120FFF7E3FF0099491CC3
:102F10000091A14201D00028F5D03120FFF7D9FF60
:102F2000002800D0012018BD774A116821F0F8016F
:102F300041EAC00010607047764908607047724BE4
:102F40005A68084322F47C12104358607047714954
:102F5000086670476C4A516821F0030101435160D3
:102F600070476948406800F00C007047664A516835
:102F700021F0F001014351607047634A516821F428
:102F8000E0610143516070475F4A516821F460512C
:102F900041EAC000506070475B4A0029517A01D075
:102FA000014300E08143517270475A49C1F8D8008B
:102FB0007047554A516821F44041014351607047C0
:102FC0005149002281F8202081F82020012802D0D8
:102FD000042802D1052081F8200070474E4908607E
:102FE000704749490A6A02430A6270474A494439AC
:102FF0000860704730B5444A5168484B11F00C01E5
:1030000003D0042901D0082901D0036012E05168DF
:10301000536801F470114FF0020413F4803F04EB85
:10302000914102D053689B0301D53D4B00E03B4BDF
:103030005943016051680F2303EA1111394B5C5C5D
:103040000168E14041605468072505EA14241C5DCD
:1030500021FA04F48460546805EAD4241B5DD94045
:10306000C1605268032303EA92322E4B1B1F9A5C05
:10307000B1FBF2F1016130BD234A0029516901D051
:10308000014300E08143516170471F4A0029916963
:1030900001D0014300E08143916170471A4A002941
:1030A000D16901D0014300E08143D1617047164AE4
:1030B0000029D16801D0014300E08143D16070470D
:1030C000114A0029116901D0014300E081431161D7
:1030D000704711494039086070470E49C86470470D
:1030E0000949C87170470848416A41F080714162DE
:1030F0007047054A0146002092680A4200D001202C
:103100007047014988727047001002400000FFF8C4
:10311000FFFFF6FE000042428004424200127A00A5
:1031200000093D0081020020F94910B5884202D112
:103130000121C41486E0B0F1804F09D0F5498842DE
:103140000DD101210220FFF7BBFF0021022064E026
:1031500001210846FFF7B4FF002101205DE0EE49A0
:10316000884206D101210420FFF7AAFF0021042094
:1031700053E0EA49884206D101210820FFF7A0FF69
:103180000021082049E0E649884206D101211020AB
:10319000FFF796FF002110203FE0E249884206D168
:1031A00001212020FFF78CFF0021202035E0DE499F
:1031B000884202D10121441444E0DC49884202D112
:1031C0000121CC043EE0DA49884202D101210C05FC
:1031D00038E0D849884202D101214C0532E0D64975
:1031E000884206D101214020FFF76AFF00214020DC
:1031F00013E0D249884206D101218020FFF760FF09
:103200000021802009E0CE4988420AD1841501219D
:103210002046FFF755FF00212046BDE81040FFF78C
:103220004FBFC849884202D101210C040AE0C649B7
:10323000884202D101214C0404E0C44988420AD1E9
:1032400001218C042046FFF732FF2046BDE81040E4
:103250000021FFF72CBF10BD30B50288AC4CB24D39
:10326000A0420DD0A8420BD0B0F1804F08D0A94B9E
:10327000984205D0A84B984202D0A84B984203D15F
:1032800022F070034A881A43A54B984206D0A54BFA
:10329000984203D022F44073CA881A4302808A8875
:1032A00082850A880285A0420AD0A84208D0A54A91
:1032B000904205D0A44A904202D0A44A904201D143
:1032C000097A01860121818230BD30B5028C22F05D
:1032D00001020284028C8388048B22F0020224F013
:1032E00073050C882C430D8915434A882A43884D61
:1032F000A8420BD08C4DA84208D0924DA84205D0D0
:10330000914DA84202D0914DA8420DD122F008055E
:103310004A8923F440732A4322F004058A882A4309
:103320008D891D43CB892B4383800483C988818683
:10333000028430BD70B5028C22F010020284028C2F
:103340008388048B0D8824F4E6464FF6FF7404EA64
:10335000052535430E8922F0200204EA061616439D
:103360004A8804EA02123243694EB04202D06E4EDD
:10337000B04215D122F080064A8923F4406304EA62
:103380000212324322F040068A8804EA02123243D3
:103390008E8904EA86061E43CB8904EA83033343FD
:1033A00083800583C9880187028470BD70B5028C53
:1033B00022F480720284028C8388848B0D8824F02E
:1033C000730425430E894FF6FF7422F4007204EA59
:1033D000062616434A8804EA022232434C4EB04283
:1033E00002D0514EB04215D122F400664A8923F42E
:1033F000405304EA0222324322F480668A8804EAB7
:10340000022232438E8904EA06161E43CB8904EA5F
:103410000313334383808583C9888187028470BD09
:1034200070B5028C22F480520284058C8288838BD2
:103430000C8823F4E6464FF6FF7303EA0424344372
:1034400025F400560D8903EA053535434E8803EA15
:1034500006362E432E4DA84202D0334DA84205D148
:1034600022F480458A8903EA82122A438280848377
:10347000C988A0F84010068470BD828B22F4406297
:103480008283828B4FF6FF7303EA01210A43828312
:103490007047828B22F00C028283828B0A438283E4
:1034A0007047028B22F440620283028B4FF6FF7357
:1034B00003EA01210A4302837047F0B5048C24F02B
:1034C00010040484078B048C4FF6FF7527F47347B0
:1034D00005EA03333B4305EA02221A430C4B05EA93
:1034E000011698420ED0104B98420BD0B0F1804F8D
:1034F00008D0084B984205D0074B984202D0074BA2
:10350000984225D124F02001314341F0100124E0FC
:10351000002C01400004004000080040000C004066
:10352000001000400014004000340140004C0140F5
:10353000005001400054014000180040001C0040B1
:10354000002000400040014000440140004801408C
:1035500024F0A0030B4343F0100102830184F0BD6B
:10356000028B22F00C020283028B0A430283704713
:1035700070B5048C24F001040484058B048C4FF690
:10358000FF7606EA0313134325F0F305F84A2B43AD
:1035900090420ED0F74A90420BD0B0F1804F08D045
:1035A000F54A904205D0F54A904202D0F44A904242
:1035B00002D124F0020201E024F00A020A4342F0A0
:1035C00001010383018470BD2DE9F84F0D460446C7
:1035D0000888E74FDFF89CC3DFF89C83DFF89C93F3
:1035E0004988AA882B894FF0804A48B304282FD0F5
:1035F0004FF6FF760828934632D0208C9E4620F462
:1036000080502084A38B208C06EA0132009223F4A0
:10361000734306EA0B221A4306EA0E331343BC42F5
:103620000AD0644508D0544506D0444504D04C45E2
:1036300002D0D34A944242D120F40050009940E095
:103640002046FFF795FFE9882046BDE8F84F87E759
:103650002046FFF732FFE9882046BDE8F84F20E713
:10366000208C20F480702084B4F81CE0208C06EAC2
:10367000031306EA01222EF0F30E43EA0B0343EA9A
:103680000E030092BC420AD0644508D0544506D0CF
:10369000444504D04C4502D0B94A944203D120F4A9
:1036A0000070009901E020F42060084340F480702D
:1036B000A3832084E9882046BDE8F84FE9E620F49A
:1036C0000240084340F48050A3832084E9882046C8
:1036D000BDE8F84FD1E62DE9F0410C4600264988B7
:1036E0000746012501B90226A288012A00D1022538
:1036F000208823890028384610D0FFF7DEFEE188B5
:103700003846FFF7CEFE23892A4631463846FFF772
:103710002FFFE1883846BDE8F04121E7FFF728FF99
:10372000E1883846FFF71CFF23892A463146384690
:10373000FFF7C3FEE1883846BDE8F041B1E610B5B9
:103740000A884B88CC881A438B8823431A430B89F9
:103750001A434B8989891A430A43A0F8442010BDB3
:103760004FF6FF71818000210180C180418001728C
:1037700070470021018041808180C18001814181A9
:103780008181C181704700210180418001228280B6
:10379000C180018170470021018041808180C1800A
:1037A00001814181818170470029018802D041F067
:1037B000010101E021F0010101807047002930F88A
:1037C000441F02D041F4004101E0C1F30E01018029
:1037D0007047002A828901D00A4300E08A4382812F
:1037E0007047818270471143A0F848107047002A43
:1037F000828901D00A4300E08A43828170470189AF
:1038000021F0070101817047028922F070020A430A
:103810000281704700B50346FFF7F6FF188940F0B4
:103820000700188100BD70B516460D466029044694
:103830004FF0010231460AD0FFF79AFE2946204692
:10384000FFF7E2FF208940F00700208170BDFFF7FD
:1038500034FEF3E730B504894FF6FF7505EA03231C
:103860001343E4B20B432343038130BD10B5044638
:10387000FFF7F0FF208940F07700208110BD10B5E0
:103880000446FFF7E7FF208940F48040208110BD07
:10389000018582827047028822F070020A4302800A
:1038A000704770B50589048B068C25F007050D431C
:1038B0004FF6FC410C4040F201110C434FF6FF71F2
:1038C00001EA031126F022061143314305810483E6
:1038D000018470BD028B22F070020A43028370479C
:1038E000028B4FF6FF7322F4E04203EA01211143F9
:1038F00001837047828B22F070020A4382837047F3
:10390000828B4FF6FF7322F4E04203EA0121114358
:10391000818370470029018802D041F0800101E0D5
:1039200021F08001018070470029818802D041F098
:10393000040101E021F004018180704700298188A1
:1039400002D041F0080101E021F0080181807047B8
:103950000029818802D041F0010101E021F001013C
:1039600081807047028B22F008020A43028370476D
:10397000002C0140003401400004004000080040D9
:10398000000C0040028B4FF6FF7322F4006203EA42
:10399000012111430183EAE7828B22F008020A43E6
:1039A0008283E4E7828B4FF6FF7322F4006203EA1E
:1039B000012111438183DAE7028B22F004020A43DA
:1039C0000283D4E7028B4FF6FF7322F4806203EA8E
:1039D000012111430183CAE7828B22F004020A43CA
:1039E0008283C4E7828B4FF6FF7322F4806203EA7E
:1039F000012111438183BAE7028B22F080020A433E
:103A00000283B4E7028B4FF6FF73C2F30E0203EAA0
:103A1000012111430183AAE7828B22F080020A432D
:103A20008283A4E7828B4FF6FF73C2F30E0203EA90
:103A30000121114381839AE7028C22F002020A439A
:103A4000028494E7028C22F008020A4302848EE783
:103A5000028C4FF6FF7322F0200203EA011111439A
:103A6000018484E7028C4FF6FF7322F0800203EAA0
:103A70000111114301847AE7028C4FF6FF7322F49F
:103A8000007203EA01211143018470E7028C4FF6B2
:103A9000FF7322F4006203EA01211143018466E707
:103AA000028C4FF6FF7322F4005203EA01311143F6
:103AB00001845CE710B50123048C8B409C43048493
:103AC000038C8A401343038410BD10B50423048C77
:103AD0008B409C430484038C8A401343038410BDB1
:103AE00030B50124058C00F118038C40A5430584F2
:103AF00089B108290FD0091FC1F34E00184401688D
:103B000021F4E041016001684FF6FF7303EA0222ED
:103B10001143016030BD03EB5100016821F07001D9
:103B200001600168F4E70029018802D041F0020138
:103B300001E021F00201018019E70029018802D08B
:103B400041F0040101E021F0040101800FE70029A8
:103B5000818802D041F0800101E021F08001818064
:103B600005E7028822F00802028002880A430280E8
:103B7000FDE6828822F07002828082880A43828079
:103B8000F5E6028922F00702028102890A430281D6
:103B9000EDE6028922F08002028102890A43028155
:103BA000E5E68184E3E68185E1E68186DFE601875B
:103BB000DDE68187DBE6A0F84010D8E6028822F433
:103BC0004072028002880A430280D0E6808ECEE6F0
:103BD000008FCCE6808FCAE6B0F84000C7E6808C44
:103BE000C5E6008DC3E602460020128A0A4200D0D4
:103BF0000120BCE6C9430182B9E602460020138ACF
:103C000092890B4202EA010202D0002A00D0012070
:103C1000ADE6C9430182AAE60D49086070470C4928
:103C2000486070470A498860704709494AF6AA20E7
:103C30000860704706494CF6CC4008607047044A5B
:103C400001460020D2680A4200D0012070470000DF
:103C50000030004000B585B06846FFF7CBF9019809
:103C600005B000BD10B5FFF7F5FF11490A6842F035
:103C700080720A600F4900224A600A6842F001021D
:103C80000A60BDE8104000F075B80A484068704707
:103C900010B50446FFF7DEFF0021074A0B4605F08A
:103CA0001AFF02460B462046002105F014FF10BD06
:103CB000FCED00E0001000E040420F0010B500F005
:103CC000DFF804461021694800F0D8F92046BDE825
:103CD000104000F0D9B8664910B500200860FFF721
:103CE000C1FFBDE81040E9E7FEE770B505460C00EE
:103CF0000ED075B100F0C4F8064610225B49284684
:103D000000F0C4FC304600F0BFF80020208070BDF9
:103D1000FEE70A20088070BD70B50C00054612D081
:103D200095B1102100F0A4FC102810D200F0A8F8E2
:103D30000646102229464D4800F0A8FC304600F007
:103D4000A3F8002005E0FEE70A20088070BD4FF4CC
:103D50007A70208070BDFFF798BF7047020004D0D2
:103D60004348006810B1002102E0FEE74FF4FA6119
:103D7000118070473E490860704710B500F08BF81D
:103D8000183810BD10B500F086F8103810BD00F0DE
:103D900082B8F0B50C0E0B0C0D0A0026354AD0F196
:103DA000FF378E411BD24FF6FF76D0F1FF378E41A1
:103DB0000AD26FF07F45D0F1FF308D4101D2105D06
:103DC000F0BDD05C0830F0BDFF23D0F1FF308B4157
:103DD00002D2505D1030F0BD505C1830F0BD4FF68F
:103DE000FF740023241A8B4111D26FF07F4400230B
:103DF000241A8B4105D2000E40EA0120105C2030CD
:103E0000F0BD000C40EA0140105C2830F0BD0023FA
:103E1000D0F1FF048B4105D2000A40EA0160105C3A
:103E20003030F0BD105C3830F0BD08B100F036B86D
:103E30000820704708B100F031B81020704708B171
:103E400000F02CB82020704700B550EA01020BD0DA
:103E5000C243521CCB4343F1000310401940FFF70B
:103E600098FFC0F13F0000BD402000BDE4210020CC
:103E70009402002014EC000872B6704762B67047D6
:103E8000EFF3108072B6704780F31088704730BF30
:103E9000704720BF7047B0FA80F0704790FAA0F0EA
:103EA000B0FA80F0704790FAA0F07047A0F141019D
:103EB000192902D96138192801D80120704700203A
:103EC0007047A0F14101192905D92039192902D9D2
:103ED0003038092801D80120704700207047613828
:103EE000192801D80120704700207047413819284F
:103EF00001D801207047002070473038092801D8C8
:103F000001207047002070473038072801D8012071
:103F1000704700207047A0F13001092905D91139F7
:103F2000052902D96138052801D8012070470020F1
:103F30007047202803D0092801D0002070470120B5
:103F4000704720280BD00D2809D00A2807D00C284C
:103F500005D0092803D00B2801D00020704701208C
:103F6000704720385E2801D8012070470020704734
:103F700021385D2801D80120704700207047A0F14A
:103F800020015E2916D8202814D00D2812D00A2826
:103F900010D00C280ED009280CD00B280AD02139BB
:103FA0001A2907D320391A2904D330380A2801D313
:103FB000012070470020704741B2002901DB1F2813
:103FC00003D97F2801D00020704701207047A0F15D
:103FD0004101192900D82030C0B27047A0F1610119
:103FE000192900D82038C0B2704700B50B46FFF73A
:103FF000F5FF02461846FFF7F1FF824201D101208A
:1040000000BD002000BD0000FD48FE490246C0E999
:10401000001200218160C160016141618161C16163
:1040200001620163C162416200F148018163C163C1
:104030004FF4806101644164F3480260704710B539
:1040400000231C46641C41EA0323042CFAD310F01D
:10405000030404D109E0521E00F8011B641C22B1C4
:10406000042CF8D301E008C0121F042AFBD202E09E
:1040700000F8011B521E002AFAD110BD0A46002189
:10408000DDE730B4814202D930BC00F0C5BD104438
:104090001144401E491E431A042B28D300F0030389
:1040A00001F00304A34201D1012400E00024F4B193
:1040B000032B07D109E05B1E11F8014900F8014903
:1040C0005BB2521E0AB1002BF5DAC01EC91E04E015
:1040D00051F8043940F80439121F042AF8D2C01CE0
:1040E000C91C04E011F8013900F80139521E002AF8
:1040F000F8D130BC704770B5034662B16BB161B1A5
:1041000013441144012003F0030401F00305AC4201
:1041100005D1012504E0012070BD002070BD0025FF
:10412000DDB1BCB113F8015D11F8016DB54200D0ED
:104130000020521E641E0128F0D1002AF1D109E0AE
:1041400053F8044D51F8045DAC4200D00020121F1A
:1041500001280AD1042AF3D207E013F8014D11F81F
:10416000015DAC4200D00020521E0128D6D1002AA9
:10417000F3D170BD30B5C36BB3FBF2F402FB143462
:104180000CB1121B00E00022446C11448C4201D29D
:10419000002030BD5D18611AC5631A4441641046A1
:1041A00030BD10B5B0FBF3F403FB140000B1181AD6
:1041B000B2FBF3F403FB14240CB11B1B00E000233F
:1041C00010441A44491E02FB010010BD2DE9FC5F9A
:1041D0001F4614008A46834600D101AC0020884E59
:1041E0002060FFF74DFE009053465A460121D6F855
:1041F0004480F06BFFF7D5FF054642F2E279404577
:1042000006D90098FFF740FEA5EB0800206012E0F9
:10421000524659463046FFF7ADFF0600009807D0DA
:10422000FFF732FE42F2107038803046BDE8FC9F46
:10423000FFF72AFE2560A7F800900020F6E72DE999
:10424000F04116460D460446FFF71AFE6368996B67
:1042500001B96B4BDF6B5C6CFFF716FE012D06D9C5
:10426000B7FBF5F005FB107000B1281A241A42F2D2
:10427000107030802046BDE8F0810A460146604853
:10428000DDE7B8B1614A0260002242608260C2602C
:10429000026142618261C2610262826242630263C0
:1042A000C26242628263C2630264426442F210707C
:1042B0000880704742F21170FAE72DE9FF4F89B08C
:1042C0008A46DDE91879044607B906AF0020386050
:1042D00049462046FFF7D5FFB9F80010A1F51C505C
:1042E000103859D14848006890B10020DFF810819B
:1042F0000290FFF7C5FD0590BAF100000BD0024611
:104300000B98002613184048B3465B1E056848E02A
:1043100042F2E7713EE0D8F83C1003910423C34613
:1043200045461A460C990398FFF73BFF0399049002
:1043300008440890DDE916230C99FFF732FF00903E
:1043400000990498464608440290D8F84410019118
:10435000884261D90598FFF797FDDDE901103CE03F
:10436000A86B504506D1D5F840C00B998C4501D1BA
:104370002E4618E0296C0144491E834213D3824221
:1043800003D98B4201D98A4209D80598FFF77CFDF1
:1043900042F27F71A9F800100DB0BDE8F08FAB4676
:1043A000ED68002DDCD136B9C4E90EAA0B98206463
:1043B0000B982646606404231A46D8F83C000C99F2
:1043C000FFF7EFFE0490D8F844100191884206D917
:1043D0000598FFF759FD01990498401A34E0F06BF5
:1043E0000890DDE916230C99FFF7DBFE0090716C55
:1043F0000191884210D90598FFF746FD08E00000BA
:10440000F421002048454150980200204E4F4E456F
:10441000DDE90001401A46E00C98042280000146C4
:1044200001904046FFF7A6FE039008B100201CE073
:10443000D8F844400598FFF727FDBAF1000F07D0E0
:104440000198A04200D9001B386042F2E27054E0AB
:104450000298F6E7DDE916123046FFF78BFE90B1C1
:10446000039941F8280008F101000C998046884220
:10447000F0D3A64220D1C4E902B55FEA0B0016D002
:10448000CBF80C4015E0F56B746C0598FFF7FCFC5D
:104490000C98DDE91623A0EB08012846FFF781FE02
:1044A000A04200D9001B386042F2D87025E06E4867
:1044B00004603DB1AC6005E07069C4E904607461FA
:1044C00000B104616948C4E900060898A061009938
:1044D00008980844401EE061039820620098A0629A
:1044E00017986063169820630C98E0620C986062DD
:1044F0000598FFF7C9FC42F21070A9F800004BE7DD
:1045000070B50D460446FFF7BBFC646AFFF7BCFCC0
:1045100042F210702880204670BD70B515460446E2
:10452000FFF7AEFC616A49B1E26A91420BD9FFF72D
:10453000ABFC42F295702880002070BDFFF7A4FC10
:1045400042F2DE70F7E7491E6162226A52F82140AA
:10455000FFF79AFC42F210702880204670BD70B5BB
:1045600014460E460546FFF78BFCEA6A911B491E6E
:1045700042F295768A4202D96A6A8A4204D9FFF7E2
:1045800083FC2680002070BD2A6A52F82150FFF774
:104590007BFC42F210702080284670BD2DE9F0416E
:1045A00016460D460446FFF76BFCE76A626A8446CE
:1045B000BA4204D3FFF768FC42F2DD701EE04FF010
:1045C000000E1346206A04E050F82310A94205D0DB
:1045D0005B1C9F42F8D8BEF1000F03D050F82210A8
:1045E00040F82310D4E9080140F82150606A401CCB
:1045F00060626046FFF748FC42F2107030803AE695
:104600002DE9F04115460E4604464FF0FF37FFF7FF
:1046100037FC0246E16A606A884205D31046FFF71C
:1046200033FC42F2DD701CE04FF0000C05E0236A21
:1046300053F82030B34205D0401C8142F7D8BCF17A
:10464000000F09D00C1A1046641EFFF71DFC42F241
:104650001070288020460EE61046FFF715FC42F247
:1046600088702880384606E698020020504F4F4C4C
:10467000002201E0401C521C18B103780BB18A42A1
:10468000F8D3104670474FF0FF31F1E730B50028FE
:1046900011D089B10346002405E0491C03F8015BF1
:1046A000641C4BB141B10D780DB19442F5D39442E5
:1046B00001D20021197030BD002030BD4FF0FF3213
:1046C000E4E730B5002816D0B1B1002A13D0034674
:1046D00001E05B1C10D01C78002CFAD104E0491CCE
:1046E00003F8015B641C3BB131B10D780DB194420C
:1046F000F5D30021197030BD002030BD4FF0FF32DE
:10470000DFE7F0B532B330B111B304460B46401CBD
:10471000491C002508E0E9B108784042F0BD401C82
:10472000491C5B1C641C6D1C26781F78BE4204D19A
:104730001EB110B109B19542F1D395420AD0F4B23D
:10474000FAB2944201D0B01AF0BD1EB10028E2D0F6
:104750000078F0BD0020F0BD4FF0FF32D1E72DE929
:10476000F0475FEA020A41D070B181B10446461CAD
:104770000F464D1C0078FFF72AFC81463878FFF77A
:1047800026FC4FF0000811E079B3087829E00078A2
:1047900021E008F1010814F8010F6D1C761C7F1C44
:1047A000FFF715FC81463878FFF711FC814505D1EC
:1047B000217819B116B10DB1D045EAD3D04515D045
:1047C0004946814503D0A9EB0000BDE8F087080009
:1047D000FBD026B13078BDE8F047FFF7F8BB25B134
:1047E0002878FFF7F4FB4042EFE7FFE70020ECE713
:1047F0004FF0FF32B3E710B5002812D081B100238B
:1048000003E0401C03F101030BD004781CB1944277
:1048100001D08B42F5D38B4202D2E1B2914200D05B
:10482000002010BD0A464FF0FF31E4E730B51546D1
:1048300004000FD071B1491EFFF71AFF20180AD0EB
:1048400000E0401EA04202D00178A942F9D10178CF
:10485000A94200D0002030BD0A464FF0FF31E5E705
:1048600030B5002803D00BB1044607E0002030BD6E
:104870008D4200D122705B1E641CF8D02578002D7B
:10488000F5D0002BF4D130BD4FF0FF33E8E72DE930
:10489000F0418C46060032D0BCF1000F2FD072B32D
:1048A000501C01D0511C01E04FF0FF310D46114664
:1048B0003046FFF7DDFE044629466046FFF7D8FE86
:1048C000050014D0A5421AD8301911D01CEB0500F0
:1048D0000ED0671B0024301980462A466146FFF738
:1048E00010FF010006D00020641C28B106E030460D
:1048F000BDE8F0810120F7E7BC42ECD909B1002006
:10490000F6E74046F4E74FF0FF32C0E72DE9FF5FDE
:10491000074611980E9D1446894600286CD0002643
:10492000B246B9F1000F00D10126A01E232800D302
:10493000012615B32846FFF714FB01281CD1302DA2
:104940001BD0A5F13000C1B20F98012802D0A5F10B
:10495000410001E0A5F16100C0B20A2C02D8A142D9
:1049600006D307E00A2903D3A4F10A01884201D241
:10497000012000E0002000B10126119A56BBB84684
:10498000012003E0B8FBF4F8401CC0B2A045F9D206
:104990000399012900D0002100EB010CCC4518D867
:1049A0004FF0000B4B46484500D318464DB1A9EBDC
:1049B0000000401A4B4610F0FF0F04D0302D04D0F9
:1049C00001E00844C3B2002000E0012082460EB995
:1049D00001E001264B461099D01809B10021017061
:1049E0000021401E04E056B13F2200F80129491C75
:1049F0009942F8D39EB3002004B0BDE8F09F27B9D8
:104A000019B1039A012A16D024E0B7FBF4F204FB93
:104A10001272D2B20A2A01D2303207E0DDF83CC06D
:104A2000BCF1010F01D0373200E05732B7FBF4F789
:104A300000F80129DBE75AEA0B0205D0BAF1000FB2
:104A400008D05A1E914205D12D2200F801294FF0BD
:104A5000010BCCE7002DCAD000F80159C7E7FFE7EA
:104A60001198C9E77FB50DF1200C9CE870008DE826
:104A700078000023FFF74AFF04B070BD2DE9FF4125
:104A80001C46DDE90B650A9F002802DA404201233B
:104A900000E00023CDE90047CDE90265FFF736FFCE
:104AA00004B025E72DE9FF5F1E4615465FEA0109C0
:104AB000824601D10DF10809C9F800A00E9808B985
:104AC00003A80E9000210170BAF1000003D0012D5F
:104AD00001D0242D01D900208EE70446007801E0A2
:104AE00014F8010FFFF72DFA0128F9D020782B28B0
:104AF00003D02D2805D0002007E04FF0000B641CE8
:104B000004E0012E00D1641C01208346019425B1EC
:104B1000082D11D0102D22D112E02078302801D09C
:104B20000A251CE014F8010F582803D0782801D07A
:104B3000082514E010250CE0207830280ED00EE077
:104B4000207830280BD114F8010F582801D078288C
:104B500005D16078FFF7DFF9012800D1641C002639
:104B6000B046009627783846FFF7ABF9012824D1E4
:104B70003846FFF7C2F901280CD03846FFF7AFF9E5
:104B8000012809D0373FF9B2A94216D2B8F1000F77
:104B900004D00EE0303FF6E7573FF4E71D4850F8E9
:104BA0002500B04203D306FB05168E4201D24FF01A
:104BB00001080098641C0028D4D0B8F1010F01D17D
:104BC0004FF0FF360198844202D0C9F8004001E05E
:104BD000C9F800A00E99304681F800B00CE708B57E
:104BE00000230093FFF75EFF08BD1CB501AB0093E7
:104BF0000123FFF757FF9DF804204FF0004122B139
:104C0000884200D2414208461CBD8842FCD36FF066
:104C100000401CBD14ED0008002800D17047002999
:104C200000D17047002A00D170472DE9F81F00F02D
:104C3000030301F00304A34211D1C3F1040303F001
:104C40000303012B1DD3012A00D2F2E011F8014B1E
:104C500000F8014BA3F10103A2F10102F1E700F01A
:104C6000010301F00104A34200D094E0012B44D3DE
:104C700011F8014B00F8014BA3F10103A2F101026D
:104C8000F4E7B2F5B47F26D3B1E8F81FA0E8F81F27
:104C9000B1E8F81FA0E8F81FB1E8F81FA0E8F81F76
:104CA000B1E8F81FA0E8F81FB1E8F81FA0E8F81F66
:104CB000B1E8F81FA0E8F81FB1E8F81FA0E8F81F56
:104CC000B1E8F81FA0E8F81FB1E8F81FA0E8F81F46
:104CD000A2F5B472D5E7282A06D3B1E8F81FA0E8F8
:104CE000F81FA2F12802F6E7042A06D351F8043B84
:104CF00040F8043BA2F10402F6E7202A42D331F83F
:104D0000023B20F8023B31F8023B20F8023B31F82D
:104D1000023B20F8023B31F8023B20F8023B31F81D
:104D2000023B20F8023B31F8023B20F8023B31F80D
:104D3000023B20F8023B31F8023B20F8023B31F8FD
:104D4000023B20F8023B31F8023B20F8023B31F8ED
:104D5000023B20F8023B31F8023B20F8023B31F8DD
:104D6000023B20F8023B31F8023B20F8023B31F8CD
:104D7000023B20F8023B31F8023B20F8023BA2F153
:104D80002002BAE7022A06D331F8023B20F8023BA0
:104D9000A2F10202F6E7102A42D311F8013B00F813
:104DA000013B11F8013B00F8013B11F8013B00F811
:104DB000013B11F8013B00F8013B11F8013B00F801
:104DC000013B11F8013B00F8013B11F8013B00F8F1
:104DD000013B11F8013B00F8013B11F8013B00F8E1
:104DE000013B11F8013B00F8013B11F8013B00F8D1
:104DF000013B11F8013B00F8013B11F8013B00F8C1
:104E0000013B11F8013B00F8013B11F8013B00F8B0
:104E1000013B11F8013B00F8013BA2F11002BAE797
:104E2000012A06D311F8013B00F8013BA2F101026F
:104E3000F6E7BDE8F81F704770470000F64CF74DE5
:104E4000FFF71EF82168491C21602968491C296068
:104E5000FFF71AF804F07AFDF2E700B5EE4A89B0E0
:104E6000002111600B2205910691CDE90720EC4845
:104E7000EC4AED4B006812681B680292CDE9030111
:104E80003F20CDE900030023AFF24F02E7A1EC4839
:104E900003F049F809B000BD0020EA4B024600EBE0
:104EA000400103EB8101401C0A810A60C0B24A60E4
:104EB0004028F4D3704710B5044604F04DFDE24895
:104EC00000220A210270E1480270E1480270E148C4
:104ED0000260E1480260E1480270E1480270E14886
:104EE0000270E1480260E1480260E1480260E14886
:104EF0000270E1480068B0FBF1F0E0490860E04969
:104F0000086830B1DF48006818B1096804C0491E5C
:104F1000FCD1DD480260DD480260DD480260DD480A
:104F20000260DD480260DD480260DD480260DD4865
:104F3000027001F02DFFFFF7AFFF204601F08DF862
:104F40002088002847D1204601F0D9FA208800287F
:104F500041D1204601F0FCFA208800283BD12046B0
:104F600001F0FFFE2088002835D1204602F03CFAEF
:104F7000208800282FD1204602F0E4FC2088002859
:104F800029D1204603F05AFE2088002823D120464C
:104F900001F062F9208800281DD12046FFF75DFF4F
:104FA0002088002817D1204603F048FF20880028D9
:104FB00011D1204602F051FE208800280BD1204656
:104FC00004F034FC2088002805D100F0A5FCBDE8E1
:104FD0001040FFF731BF10BD9C480078012805D173
:104FE00099490878FA2801D2401C08707047974800
:104FF00010B5007801282BD1FEF742FF92490446F4
:10500000087800B3401E10F0FF0008701BD19048D4
:105010000078C0B901F0C5FE91490870894900EBDC
:10502000400051F820008C4908608A49096888428C
:1050300009D050F8901F491C01609B480168491C29
:10504000016006F069FE2046BDE81040FEF71CBF77
:1050500010BD7D4810B50078002824D17C48007828
:10506000002820D1FEF70CFF044601F09AFE7C498F
:105070000870744900EB400051F820007649086040
:1050800074490968884209D050F8901F491C016092
:1050900085480168491C016006F039FE2046BDE8DC
:1050A0001040FEF7F1BE10BD694810B50078012828
:1050B00003D1FEF7EAFD6C49086010BD70B50446E7
:1050C0006148007810B146F6625019E05F480078F8
:1050D000012802D045F6896012E05D4D2878FA2853
:1050E00002D345F209200BE0FEF7CAFE06462878F7
:1050F000401C2870FFF7D8FF3046FEF7C5FE0020A1
:10510000208070BD524810B5007800280ED1FEF7FF
:10511000BCFD55490968401A54490A68824200D2C8
:10512000086053490A68824200D2086010BD70B519
:1051300004464548007810B146F6655023E04348E0
:105140000078012802D045F689601CE0404E307896
:1051500070B1FEF795FE05463078401E10F0FF0056
:10516000307008D02846FEF78FFE46F663500AE0FE
:1051700046F6645007E0FFF7C5FF2846FEF784FEB9
:10518000FFF767FF0020208070BD2DE9F041164633
:105190000C460746FEF774FE36490025012F01D064
:1051A0000D7001E001220A7034490CB10C6005E079
:1051B000314A0A231268B2FBF3F20A60FEF764FE7A
:1051C0003580BDE8F08110B50189002914D001298E
:1051D00012D00024022907D0D0E90013CA68146154
:1051E000C1E90343D96005E0D0E90012C1E90342F7
:1051F000C2E90314C0E9002110BD70B5044612488D
:10520000007810B148F2D14079E01148007810B12F
:1052100046F6635073E049E0C002002024030020FA
:10522000BCED0008B8ED0008B4ED000875432F4F41
:10523000532D4949492049646C65205461736B00C2
:10524000CC3A0020603C0020C4020020C5020020AF
:105250000C0300206403002068030020F2020020F9
:10526000F3020020F40200200003002004030020C9
:10527000080300201403002008EE0008100300209B
:10528000E0ED0008DCED0008A4020020A8020020E8
:10529000AC020020B0020020B4020020B8020020BE
:1052A000BC0200204203002038030020F7480078A9
:1052B000012802D046F67B1021E0FEF7E1FD06460C
:1052C000F348F449007800EB400001EB80052889A1
:1052D000022805D23046FEF7D7FD46F67A100EE0DA
:1052E0002846FFF770FF2868416D09B9EA49096847
:1052F00081653046FEF7C8FDFFF7ABFE0020208039
:1053000070BD70B5E54D0446287818B145F68A6041
:10531000208070BD01F045FDE1490870DC4908704E
:10532000DC4900EB400051F82000DE490860DE490E
:1053300008600120287006F0D9FC43F69920E7E7C1
:105340000021018047F25C60704738B14268C1F8C3
:10535000C02081688968096AC161704791F834008A
:10536000022803D0072803D0D0A002E0D0A000E09C
:10537000D1A0C1F8C000704730B58A68002592F806
:10538000374002891AB1521C028102680BE00122E7
:1053900002814D600D60016014E0936893F837302E
:1053A000A34203D85268002AF7D107E032B113684C
:1053B00053B1C1E900325960116030BD4D6042689F
:1053C0000A605160416030BD1160C1E90052016066
:1053D00030BD10B5C2870024234601630EE04B6048
:1053E00041F8103B641C41F8103BA4B241F80C3C5E
:1053F00021F8083C41F8043C41F8180C9442EED3E3
:1054000010BD70B5044690F83700A24900EB40008B
:1054100001EB8001D4E90320002540B10B895B1E1C
:105420000B81C26092B110612561E56070BD2AB147
:105430000889401E088115610A60F5E70D810D603D
:105440004D6094F8370001F0CAFCEDE74860EBE7E7
:1054500038B50446022531B16B46022203F027FD20
:10546000BDF8000028B184F836502046FFF7C9FF88
:1054700038BD032084F83600F7E72DE9F0418A4D66
:1054800007460C4628680026194680F8342080F824
:105490003560FFF7DDFF64B1FC6004F1080601220E
:1054A00039462868FFF795FF39463046FFF764FF15
:1054B00002E02868C687066320462968BDE8F041F7
:1054C00043E710B502890024012A0BD00A6862B1B3
:1054D0004B6873B153601A600289521E02814C609E
:1054E0000C6010BD04604460F6E74A681460026016
:1054F000F2E754604260EFE770B50646C58F046B73
:1055000007E0E06821460830FFF7DBFF6D1EADB213
:105510002034002DF5D10020F087306370BD10B528
:105520000B6BC98F08E0DC68844202D1DA61186134
:1055300010BD491E89B220330029F4D110BD90F866
:105540003710544A01EB410102EB810100230A8923
:1055500042B1521C0A810A68C0E903230A6810613B
:105560000860704701220A81C360036108604860D7
:10557000704790F83710474A01EB410102EB810177
:1055800000230A893AB1521C0A81C3604A68026149
:10559000D0604860704701220A81C36003610860DF
:1055A000F7E710B5044690F8370001F00AFC3849D7
:1055B00094F8370009788842204602D1BDE81040AF
:1055C000D7E7BDE81040BAE710B5044603F060FB2A
:1055D00094F83610490703D42046BDE81040E0E7B0
:1055E00010BD2DE9F041064691F8360000270C4623
:1055F00015464FF00108082835D2DFE800F03434B2
:10560000040434341A1A94F83400032803D12146D0
:105610003046FFF784FFE765A4F86070256416B193
:105620002046FFF769FF2046FFF7CEFF84F836706B
:1056300015E094F83400032803D121463046FFF7E3
:105640006EFFE765A4F86070256416B12046FFF789
:1056500053FF204603F01CFB042084F8360084F836
:10566000358084F83470ACE516A2C1F8C02081689A
:1056700011B18968096A00E012A1C161704770B573
:1056800080F83710C58F046B2EE000001403002053
:10569000F2020020603C002010030020C502002020
:1056A000F3020020680300206403002020000000B3
:1056B0005461736B205100005461736B2053656D0E
:1056C0000000000020000000E668308A083601284B
:1056D00007D921463046FFF7F4FE21463046FFF752
:1056E0004BFE6D1EADB22034002DEDD170BD0021FA
:1056F00001604160018170470289521C0281026889
:105700004A6000220A60026802B1116001600289E9
:10571000012A00D14160704710B50B6BC98F08E0BA
:10572000DC68844202D1DA61186110BD491E89B279
:1057300020330029F4D110BD2DE9F0410C4691F839
:105740003610002502261746082933D2DFE801F07B
:10575000323204043232191994F83410032903D177
:105760003A462146FFF7D8FFE565A4F86050204689
:105770002764FFF7C1FE2046FFF726FF84F8365066
:1057800014E094F83410032903D13A462146FFF778
:10579000C3FFE565A4F860502046276403F078FA5B
:1057A0002046FFF7A9FE042084F8360084F835600F
:1057B00084F8345005E570B50C6B049DC98F0AE080
:1057C000E668864204D1C4E904022383E56170BD22
:1057D000491E89B220340029F2D170BDF8B50C46BB
:1057E000054691F836100026069808293BD2DFE8D6
:1057F00001F03A3A04043A3A202094F8341003298C
:1058000011D0E265A4F86030206435B12046FFF77E
:1058100073FE21462846FFF727FF2046FFF7D4FEF8
:1058200084F836601BE0009021462846FFF7C3FF4E
:10583000EBE794F83410032916D0E265A4F8603041
:105840002064204603F024FA35B12046FFF754FEC9
:1058500021462846FFF708FF042084F8360084F824
:10586000356084F83460F8BD009021462846FFF783
:10587000A2FFE6E710B5FEF703FB1F490446002030
:1058800008701F481D49016051F8900F401C0860C6
:105890001C490868401C086006F039FA2046BDE83B
:1058A0001040FEF7F1BA70B5054617480078012898
:1058B00020D1FEF7E5FA04462868B0B113498842C2
:1058C00013D0816D11B1491E81650ED1288902283E
:1058D0000BD30F48007840B92846FFF774FC2868BE
:1058E000416D09B90B49096881652046BDE87040E2
:1058F000FEF7CABA70BD0000F3020020903B002002
:10590000680300203803002014030020CC3A002054
:105910000C03002010030020704700000023FF4A02
:10592000FDA14361C161116819B1816148611060D5
:1059300070478361FBE72DE9F0410446F848904643
:105940000F4600781D4610B142F6E16025E014B321
:10595000FEF796FAF34E3178491C3170FEF794FA4F
:10596000F148C4E900070027C4E9088704F10800EA
:10597000FFF7BDFE2046FFF7D1FFEC490888401C29
:105980000880FEF77DFA3178491E3170FEF77CFA07
:105990002F80BDE8F08145F6C3501880F9E7E4494F
:1059A00002C0E4A102C000218161FFF7A0BED0E9DE
:1059B000052100232AB151B191614A61836143619C
:1059C0007047D64A116001B14B61836170479361A2
:1059D000F5E72DE9F05F8046D14814468946007806
:1059E00010B143F2C92013E0B8F1000F06D008004F
:1059F00007D0012905D045F6256009E045F6C350DA
:105A000006E0C949D8F80000884205D045F6C450E0
:105A100010800020BDE8F09FFEF732FAC14F3978C0
:105A2000491C3970FEF730FAB8F810505FEA0900E7
:105A3000DFF8F8B2DFF8049308F10806AA460AD0A6
:105A4000012842D0FEF71CFA3978491E11F0FF01F7
:105A500039705DD064E05FEA0A0008D0FEF710FA02
:105A60003978491E11F0FF0139701FD026E04046F9
:105A7000FFF79DFFBBF800104046491EABF8001031
:105A8000FFF78DFFFEF7FCF93978491E11F0FF0191
:105A9000397007D1B9F8001021B1FEF7F5F9FFF719
:105AA000E9FE01E0FEF7F0F900200BE0B9F8001084
:105AB00021B1FEF7E9F9FFF7DDFE01E0FEF7E4F9B9
:105AC00047F25F1020805046A4E7FEF7DEF88146DB
:105AD00007E030684A4681684046FFF72DFE6D1E9C
