:020000040800F2
:10000000104E0020312800083D0C00083F0C00086D
:10001000410C0008430C0008450C000800000000DB
:10002000000000000000000000000000470C000875
:10003000490C0008000000006FB20008B91B00085E
:100040004B2800084B2800084B2800084B280008C4
:100050004B2800084B2800084B2800084B280008B4
:100060004B2800084B2800084B2800084B280008A4
:100070004B2800084B2800084B2800084B28000894
:100080004B2800084B2800084B2800084B28000884
:100090004B2800084B2800084B2800084B28000874
:1000A0004B2800084B2800084B2800084B28000864
:1000B0004B2800084B2800084B2800084B28000854
:1000C0004B2800084B2800084B2800084B28000844
:1000D0004B280008491E0008751F0008672100080A
:1000E0004B2800084B2800084B28000800F002F8B5
:1000F00000F0B0F80AA090E8000C82448344AAF112
:100100000107DA4501D100F0A5F8AFF2090EBAE80F
:100110000F0013F0010F18BFFB1A43F0010318473B
:10012000B4E90000D4E900000A444FF0000C10F8D4
:10013000013B13F0070408BF10F8014B1D1108BF65
:1001400010F8015B641E05D010F8016B641E01F805
:10015000016BF9D113F0080F1EBF10F8014BAD1C55
:100160000C1B09D16D1E58BF01F801CBFAD505E073
:1001700014F8016B01F8016B6D1EF9D59142D6D3CD
:10018000704700000023002400250026103A28BFF5
:1001900078C1FBD8520728BF30C148BF0B607047F9
:1001A0006E2909F00984702909F0B18066290DF0E3
:1001B0001E8565290DF01B8567290DF018856129BD
:1001C0000DF0178503681B0A28BF41F080016929DB
:1001D00009F02280642909F01F80752909F01C802C
:1001E0006F2909F00085782909F07D80E92909F057
:1001F0009B84E42909F09884F52909F09584EF2976
:1002000009F0FD84F82909F07C800368DB0928BF28
:1002100041F08001632909F00A84732909F00F84F1
:10022000E3290AF04781F3290AF04C810020704746
:100230001FB50AF079FB0400002000210CF062FCDD
:10024000401C6060002000210CF046FCE0601FBDF7
:1002500010B510BD0AF03AFB1146FFF7E9FF00F0B8
:100260001EFC0AF017FC03B4FFF7F2FF03BC01F019
:10027000CEFD0000ACB0DFF800940024FD4FA9F1E2
:100280004006FE4DA0460DF1A80A02F0CCFA03F09C
:100290009DF82978491C297003F09CF8F649F84824
:1002A0001C3102F028F918B3641C0C2C01DD87F80E
:1002B0000080D9F8000090B1D9F808207AB10CA9D3
:1002C000039106F1500191E80A108DE80A10F36CD1
:1002D000716C02F060FA0CA9EAA001F0A2FD03F033
:1002E00075F82978491E11F0FF01297020D027E008
:1002F000E0491C221031A1F10800CDE90A01DE49D4
:1003000003A81C3109F023FA06F1500007C88DE854
:10031000070006F140000FC802F057F901203870BD
:10032000D54800242AAA2146283806F051FDC0E706
:10033000D649098821B103F04DF804F041FD01E0F0
:1003400003F048F80023CDE9008A05221946184633
:1003500008F03BF999E78EB0C84C00250CAE4FF47D
:10036000FA7702F060FA03F031F82178491C217025
:1003700003F030F8C04801F0D5FAE0B9BD491C22BD
:100380001031A1F10800CDE90A01BB4903A81C31D5
:1003900009F0DDF9B848403800F1500140300EC98D
:1003A0008DE80E000FC802F010F9B3480CAA002126
:1003B000283806F00DFD03F009F82178491E11F0E8
:1003C000FF01217007D1B149098821B103F002F87A
:1003D00004F0F6FC01E002F0FDFFCDE9005600213B
:1003E0003B460122084608F0F0F8BAE70EB5A34CE8
:1003F000A04DDFF89C92DFF89CA24FF4B476002762
:100400000DF108084FF4967B02F00DFA02F0DEFFC2
:100410002178491C217002F0DDFF01F03DFB80B224
:100420000CF040FED5E904230CF0B4FB00224B464F
:100430000CF0B0FB002253460CF0ACFB0CF0EEFDD0
:1004400080B2B0FBF6F106FB110000F0D1FC02F027
:10045000BDFF2178491E11F0FF01217007D18B49A2
:10046000098821B102F0B6FF04F0AAFC01E002F015
:10047000B1FF0022CDE900785B461146104608F036
:10048000A4F8C1E79AB04FF001094FF0020A794E83
:100490004FF0000802F0C7F917A800900023764833
:1004A0001A461946283806F037FB02F08FFF7349C9
:1004B0000A78521C0A7002F08DFFD6E904010CF094
:1004C00037FB054600F0F3FC734FD6E9020100222A
:1004D0003B460CF035FF06D2D6E902010CF06EFD6A
:1004E00002466EA117E0D6E9020100226D4B0CF026
:1004F00029FE00223B46C6E902010CF0E7FD04D2CA
:1005000069A102A808F022FE08E0D6E902010CF079
:1005100055FD024665A102A808F018FE002110232F
:1005200002AA084600F05EFD15F1FF4F13D26048A5
:10053000854210DC5F498D4206DD032161F307042B
:1005400068F30F2429461BE068F30704032060F3D7
:100550000F2428464CE056484FF4000140422844FE
:10056000884218D8D6E904010022534B0CF0E8FE6B
:1005700009D269F30704032060F30F2429464F488A
:100580000DF0C0FA34E0032060F3070469F30F2490
:1005900047492846F4E74A482844884210D8494841
:1005A000854207D246486AF3070469F30F242946B7
:1005B0004042E5E769F307046AF30F243F4914E07A
:1005C0003F48404285421AD88D4218DA3E4885425B
:1005D00006D268F307046AF30F2485F0004007E0B1
:1005E0006AF30704324968F30F2428460DF0E6F851
:1005F0000DF008FA024635A102A808F0A7FDE2B204
:100600000021302000F008FD04220021402000F0ED
:1006100003FDC4F307220021502000F0FDFC10234D
:1006200002AA0021602000F0DDFC052200217020DC
:1006300000F0F2FC104A642442F210775069B0FBDB
:10064000F4F104FB11018DF83C10B0FBF4F1B1FBA7
:10065000F4F3B0FBF7F004FB13118DF840108DF8A4
:1006600044001069B0FBF7F1B1FBF4F204FB121186
:100670002EE0000000000020341C00200C030020AD
:100680006C1C00202325730D0A000000D0020020FE
:1006900000805640008076400000F03F25646B6D7E
:1006A0000000000000408F403C316D0025646D006B
:1006B0000000B4420000344200E0604000003443D7
:1006C00000004C3D000007C3000034C22564000058
:1006D0008DF84810B0FBF4F1B1FBF4F204FB1211F9
:1006E0000191B0FBF4F104FB110512AB11AA10A9A2
:1006F0000FA801F008FEFE494869B0FBF4F204FBC4
:1007000012028DF84C20B0FBF4F2B2FBF4F3B0FB14
:10071000F7F004FB13228DF850208DF8540008697F
:1007200016ABB0FBF7F1B1FBF4F204FB12118DF83C
:100730005810B0FBF4F1B1FBF4F204FB1217B0FB5C
:10074000F4F104FB110415AA14A913A801F0DBFDB0
:100750009DF83C1042F21070189141439DF8400002
:100760009DF85030864600EBC00202EB001001EB12
:1007700080019DF8440042F2107201EB000C9DF8DC
:100780004C108B46514303EBC30202EB031201EB07
:1007900082029DF854100A44944524D19DF84800E3
:1007A00042F2107100FB01F2019907EBC70C01EB5B
:1007B000C10303EB011102EB81019DF8582042F2C5
:1007C000107302FB03F30CEB071C03EB8C032944AF
:1007D0002344994202D93B46009402E0019B0095D4
:1007E0000246C4A107E002D95A46009102E0189AD5
:1007F00073460090C3A102A808F0A8FC06220221BB
:10080000002000F009FC07220221102000F004FC67
:1008100008220221202000F0FFFB102302AA02215F
:10082000302000F0DFFBBC484FF00C030078B8B17B
:10083000BAA20721002000F0D5FB30784FF00C035E
:1008400080B1BAA20621002000F0CCFB02F0BEFD70
:10085000BA4A1178491E11F0FF01117004D00BE063
:10086000B7A2E6E7BBA2EDE7BF49098821B102F0D4
:10087000B1FD04F0A5FA01E002F0ACFD17A8CDE946
:100880000080002302221946184607F09EFE01E66A
:10089000ACB000F0EDFE964DB44E0CAFA74C5C3DF5
:1008A0004FF000080DF1A80901F0BDFF00F06DFF49
:1008B000401C01D100F0DCFE02F088FD2178491CCB
:1008C000217002F087FD3078F8B98949A84801F015
:1008D00012FED0B9A5491C221031A1F10800CDE9C2
:1008E0000A01834903A808F032FF05F1500007C848
:1008F0008DE8070005F140000FC801F066FE7C4856
:100900002AAA0021443806F063FA01F08CFF05F1B1
:100910005000039707C88DE8070005F140000FC895
:1009200001F039FF0CA800F043FE02F04FFD2178E2
:10093000491E11F0FF01217007D18B49098821B1AF
:1009400002F048FD04F03CFA01E002F043FD002310
:10095000022219461846CDE9008907F036FEA3E7C2
:100960002DE9F0478AB002F05CFC09A806F0EBFA2A
:10097000012109AA084603F0AEFE02F027FD6F4EE2
:100980003178491C317002F025FD594809AB01222C
:1009900078A1443805F0EFFF0325002406A809AF2D
:1009A000059480E8B0004FF0040A4FF01909744A2A
:1009B000CDF800A0CDE901294FF480782346AFF2AD
:1009C0002F126F48CDE903846EA1C43806F051FDA3
:1009D00006AB059483E8B00080200C21CDE902101D
:1009E0006B4A0520CDE9000204940023AFF26B525C
:1009F000674868A1C43806F03CFD06A8CDF8089009
:100A0000059480E8B000664A0023CDE90052AFF2B9
:100A100023626348CDE9038462A1C43806F029FD4E
:100A200006A8059480E8B000614ACDF800A0CDE9A1
:100A300001290023AFF2E1625D48CDE903845DA1A5
:100A4000C43806F016FD06A8059480E8B0005C4A9C
:100A5000CDF800A0CDE901290023AFF2E772584894
:100A6000CDE9038457A1C43806F003FD02F0AEFCC3
:100A70003178491E11F0FF01317007D13A490988D8
:100A800021B102F0A7FC04F09BF901E002F0A2FC06
:100A900009A9002006F0CEFD0AB0BDE8F08730B508
:100AA0008BB04FF4A06001F0E3FE00F01FF901F0FD
:100AB00091F801F0FDF800F033FF00F0F1FA00F0DA
:100AC00071F900F0D3FD00F0DAFF192001F090FE7B
:100AD00009A803F096FC02F079FC184C2178491C17
:100AE000217002F077FC032109AA002006AB6FE019
:100AF000501C0020253032643A253032643A2530CB
:100B0000326400003230253032642E253032642EBB
:100B100025303264000000007B020020696E74659D
:100B2000726E6574206F6E6C696E65006863313437
:100B300020202020206F6E6C696E65000C03002061
:100B4000696E7465726E6574206F66666C696E6539
:100B5000000000006863313420202020206F66668A
:100B60006C696E6500000000D002002000000020CB
:100B7000542000206F6C65645F73656D0000000099
:100B8000FC0600204D515454207461736B0000002A
:100B9000C00B00204F4C4544207461736B00000073
:100BA000840E0020506F696E74207461736B0000B6
:100BB00048130020475053207461736B00000000FD
:100BC0000C18002048433134207461736B0000001E
:100BD000059083E8070080220C23CDE90232124DF4
:100BE00004900346AFF28722CDE900150FA1A5F1CD
:100BF000C40006F03EFC02F0E9FB2178491E11F02A
:100C0000FF01217007D10C49098821B102F0E2FBF4
:100C100004F0D6F801E002F0DDFB09A803F017FEAE
:100C20000BB0002030BD00003804002073746172E6
:100C300074207461736B0000D00200207047FEE7DF
:100C4000FEE7FEE7FEE77047704700000CB50022A4
:100C50004C4800920192016841F4803101604FF4E8
:100C6000A063016801F4003101910099491C0091D1
:100C7000019911B900999942F3D10168890333D5DB
:100C80000121019140490A6842F010020A600A6895
:100C900022F003020A600A6842F002020A60416818
:100CA000416041684160416841F480614160416850
:100CB00021F47C114160416841F4E8114160016810
:100CC00041F08071016001688901FCD5416821F023
:100CD00003014160416841F0020141604168C1F394
:100CE00081010229FAD10CBD01920CBD254810B535
:100CF000016841F0010101604168244A11404160EE
:100D00000168234A11400160016821F480210160DB
:100D1000416821F4FE0141604FF41F018160FFF73B
:100D200095FF1C494FF00060086010BD154A10B5D2
:100D30005068194B10F00C01184803D0042901D059
:100D4000082901D0036012E05168536801F4701162
:100D50004FF0020413F4803F04EB914102D053683A
:100D60009B0301D50E4B00E00B4B594301605168CA
:100D70000A4AC1F30311121D515C0268CA400260A5
:100D800010BD000000100240002002400000FFF8EB
:100D9000FFFFF6FE08ED00E000127A0018000020C8
:100DA00000093D00F8B50121082002F08CF910205F
:100DB0008DF8030003208DF802001D4D0020BDF8C2
:100DC000001035F81020401C1143ADF80010082821
:100DD000F5DB184E6946304601F0F9FD0024304637
:100DE00035F8141001F05DFE641C082CF7DBF8BD2B
:100DF0004FF4B4711630B0FBF1F201FB12002DE993
:100E0000F0412D21B0FBF1F0094E0A4FC5B200248C
:100E1000A54236F81410384602D101F044FE01E034
:100E200001F03FFE641CE4B2082CF1D3BDE8F08170
:100E3000E6DC0008000C014013B54FF001036A46E0
:100E400009B1402100E00021782000F07EFA1CBDAD
:100E500010B50446B031C8B20021FFF7EDFF1020F5
:100E600040EA14100021FFF7E7FF04F00F00BDE88F
:100E700010400021E0E710B500218D20FFF7DCFFD6
:100E800000211420FFF7D8FF0021BDE81040AF205B
:100E9000D2E710B500218D20FFF7CEFF00211020F2
:100EA000FFF7CAFF0021BDE81040AE20C4E770B5CF
:100EB000002505F1B000C0B20021FFF7BDFF002101
:100EC0000846FFF7B9FF00211020FFF7B5FF002407
:100ED00001210020FFF7B0FF641CE4B2802CF7D39F
:100EE0006D1CEDB2082DE4D370BD2DE9F041203A20
:100EF00000240F468046D5B27F2803D900208F1CDE
:100F00008046FFB2102B394610D0FFF7A1FF9E4953
:100F100005EB450001EB40050121285DFFF78CFF43
:100F2000641CE4B2062CF7D3BDE8F081FFF790FF14
:100F3000964E04EB05100121305CFFF77DFF641C29
:100F4000E4B2082CF5D37F1CF9B24046FFF780FFCE
:100F5000002404EB051030440121007AFFF76CFFF8
:100F6000641CE4B2082CF4D3DEE70346012000E061
:100F70005843491EC9B2FBD270472DE9F05F0027E4
:100F8000DDF828A01D4691468B4680463C464FEA38
:100F90005A0623E0281B401EC1B20A20FFF7E5FFD6
:100FA000B9FBF0F00A21B0FBF1F201FB120027B906
:100FB000691E8C4201DA38B101273030C2B206FB1B
:100FC0000480C0B2534604E006FB0480C0B253461E
:100FD00020225946FFF789FF641CE4B2AC42D9D302
:100FE000BDE8F09F2DE9F041984617460E460446AD
:100FF00000250DE0434631462046FFF776FF0834D2
:10100000E4B2782C02D90024B61CF6B26D1CEDB205
:101010007A5D002AEED187E72DE9F04115460E46AC
:101020000746FFF715FF5A48002400EB85150121FC
:10103000285DFFF701FF641CE4B2102CF7D3761C87
:10104000F1B23846FFF704FF00242819012190F877
:101050002000FFF7F1FE641CE4B2102CF5D363E727
:101060002DE9F0471F4690460E4682460025DDF8E2
:10107000209011E031465046FFF7EAFE544607E063
:1010800019F8050001216D1CFFF7D6FE641CE4B2BF
:101090004445F5D3761CF6B2BE42EBD3BDE8F087EB
:1010A00010B500F09DF84FF4487000F0D8FD002115
:1010B000AE20FFF7C1FE00210846FFF7BDFE00216C
:1010C0001020FFF7B9FE00214020FFF7B5FE0021F8
:1010D000B020FFF7B1FE00218120FFF7ADFE002117
:1010E000FF20FFF7A9FE0021A120FFF7A5FE0021A8
:1010F000A620FFF7A1FE0021A820FFF79DFE0021FA
:101100003F20FFF799FE0021C820FFF795FE002140
:10111000D320FFF791FE00210846FFF78DFE002146
:10112000D520FFF789FE00218020FFF785FE0021F2
:10113000D820FFF781FE00210520FFF77DFE00216A
:10114000D920FFF779FE0021F120FFF775FE00217D
:10115000DA20FFF771FE00211220FFF76DFE00215B
:10116000DB20FFF769FE00213020FFF765FE00213C
:101170008D20FFF761FE00211420FFF75DFE0021A6
:10118000BDE81040AF2057E6F6DC00081EDF00087F
:101190002C0000200221D54801F06FBCD34A10B5C5
:1011A00000284FF00201104602D001F07AFC01E065
:1011B00001F079FCBDE81040052000F031BDCB4ABC
:1011C00010B500284FF00401104602D001F069FC70
:1011D00001E001F068FCBDE81040052000F020BDF2
:1011E00008B50121042001F06EFF0620ADF80000D3
:1011F00010208DF8030003208DF802006946BB48DB
:1012000001F0E5FB0120FFF7C9FF0120FFF7D7FF41
:1012100008BD08B50220ADF8000010208DF80300CD
:1012200003208DF802006946B04801F0D0FB08BDEC
:1012300008B50220ADF8000048208DF8030069468B
:10124000AA4801F0C4FB08BD10B5FFF7E2FF01207A
:10125000FFF7A4FF0120FFF7B2FF0020FFF79EFF7A
:10126000BDE810400020AAE710B5FFF7D2FF00202C
:10127000FFF794FF0020FFF7A2FF0120FFF79FFF79
:10128000BDE81040012089E770B505460024FFF74E
:10129000C0FF0020FFF782FF0020FFF790FF05F05E
:1012A0008000FFF77BFF0120FFF789FF0020FFF799
:1012B00086FF6806641C050EE4B2082CEFD3BDE877
:1012C000704000206AE770B500242546FFF7B0FFA4
:1012D0000020FFF774FF0120FFF771FF6806060E7C
:1012E000FFF758FF40EA06050020FFF768FF641C7F
:1012F000E4B2082CEFD3284670BD10B5FFF798FF75
:101300000020FFF75CFF0120FFF759FFFFF742FFC6
:1013100004460020FFF753FF204610BD10B50446D9
:10132000FFF777FF0020FFF74AFF0020FFF736FFA7
:101330002046FFF733FF0120FFF741FF0020FFF7B2
:101340003EFFBDE81040002028E72DE9F0411D4692
:10135000164688460746002403F0E4F8FFF774FFBA
:101360003846FFF791FFFFF7C8FF012807D0404636
:10137000FFF78AFFFFF7C1FF012802D00BE05CA056
:1013800012E060A010E0305DFFF77EFFFFF7B5FFD1
:10139000012808D0641CAC42F5DBFFF765FFBDE80F
:1013A000F04103F0CAB85CA007F0C4FEBDE8F0410C
:1013B0005AE72DE9F0411D461646884607460024A7
:1013C00003F0B0F8FFF740FF3846FFF75DFFFFF787
:1013D00094FF012812D04046FFF756FFFFF78DFF1C
:1013E00001280DD0FFF730FF47F00100FFF74CFF59
:1013F000FFF783FF012805D06D1E10E03CA002E03E
:1014000040A000E048A007F095FEBDE8F0412BE7C2
:10141000FFF759FF30550020FFF780FF641CAC42F6
:10142000F6DBFFF750FF30550120FFF777FFFFF79E
:101430001BFFBDE8F04103F080B82DE9F0411546EF
:101440000E460746002403F06DF8FFF7FDFE384610
:10145000FFF71AFFFFF751FF012809D124A010E080
:10146000305DFFF711FFFFF748FF012808D0641C2B
:10147000AC42F5DBFFF7F8FEBDE8F04103F05DB8E4
:1014800020A007F057FEBDE8F041EDE62DE9F04160
:1014900015460E460746002403F044F8FFF7D4FE35
:1014A00047F00100FFF7F0FEFFF727FF012801D00A
:1014B0006D1E0CE01CA007F03DFEBDE8F041D3E638
:1014C000FFF701FF30550020FFF728FF641CAC42F6
:1014D000F6DBFFF7F8FE30550120FFF71FFFFFF79F
:1014E000C3FEBDE8F04103F028B800000008014049
:1014F0006465765F61646472206E6F2061636B0D5A
:101500000A0000006D656D5F61646472206E6F207B
:1015100061636B0D0A000000627566206E6F2061CA
:10152000636B0D0A000000006465765F616464729D
:101530007C30783031206E6F2061636B0D0A0000C3
:1015400010B5C821994808F034F99949002008706D
:1015500010BD9749087830B1964A1378984204D163
:10156000002008707047012070471070FBE770B5CD
:101570000E46C82400F0B6FD42F2107512E0FFF7E7
:10158000E8FF60B93146894808F05AF838B1874910
:1015900089A007F0CFFDFFF7D3FF002070BD2846DC
:1015A00000F03EFB641EE4B2E9D24FF0FF3070BDA4
:1015B000F0B5834E024603253078A7B02F1F40B107
:1015C00080A1104608F036F8014619A808F04AF83C
:1015D0000AE0384627B0F0BD7BA119A808F066F8EC
:1015E000214619A808F062F876A1002008F022F838
:1015F0000400F1D119AB75A277A1684607F0A6FDEA
:1016000069466DA007F096FD7BA16846FFF7AFFF26
:1016100044F6206406E0204600F002FB76A168460E
:10162000FFF7A5FF0028D5D06D1E15F0FF05F2D1FC
:1016300000203070CDE770B571A504246EA1284656
:10164000FFF795FF764E06E0304600F0E9FA6AA112
:101650002846FFF78CFF002807D0641E14F0FF0413
:10166000F2D1574900200870401E70BD00F0CABC7E
:1016700070B59CB0642102A808F0BDF8FFF760FFC8
:1016800000251BAC4FF4FA7607E00022CDE90054A8
:1016900033461146104606F098FF57A161A0FFF7A8
:1016A00066FF0028F1D145A160A0FFF760FF00228E
:1016B000CDE9005433461146104606F086FF4EA190
:1016C0005DA0FFF754FF0028F1D15FA361A263A1E1
:1016D00002A807F03BFD07E00022CDE900543346A5
:1016E0001146104606F071FF62A102A8FFF73FFF06
:1016F0000028F1D131A0009030A361A262A102A81C
:1017000007F024FD07E00022CDE9005433461146DE
:10171000104606F05AFF38A102A8FFF728FF00285C
:10172000F1D140F25B7363A266A102A807F00EFD3F
:101730000CE060A16AA0FFF71AFF68B10022CDE9B2
:10174000005433461146104606F03FFF2AA102A876
:10175000FFF70DFF0028ECD165A268A102A807F0F1
:10176000F5FC07E00022CDE900543346114610464F
:1017700006F02BFF20A102A8FFF7F9FE0028F1D107
:101780000F49012008701CB070BD0D4810B50078DD
:101790004FF0FF3440B12FA15EA0FFF7E8FE18B173
:1017A000FFF749FF002800D0204610BD1C21002073
:1017B0007C0200206C02002025730D0A000000004E
:1017C0007B0200202C0000005C2C0000706F73690D
:1017D00074696F6E5F41000041542B4D5154545059
:1017E00055423D302C222573222C222573222C3089
:1017F0002C300D0A000000004F4B0D0A00000000C5
:1018000041542B4D5154545055423D302C22746557
:101810007374222C22222C302C300D0A0000000080
:10182000A086010041540D0A0000000041542B52D3
:1018300053540D0A0000000041542B43574D4F44B0
:10184000453D310D0A000000313136343434323038
:1018500030330000746573740000000041542B4362
:10186000574A41503D222573222C222573220D0A0E
:1018700000000000474F542049500D0A00000000AE
:10188000636C69656E74000041542B4D515454557E
:101890005345524346473D302C312C222573222C90
:1018A000222573222C222573222C302C302C22222C
:1018B0000D0A000033392E3130372E3232382E32B5
:1018C0003032000041542B4D515454434F4E4E3D45
:1018D000302C222573222C25642C300D0A000000A8
:1018E00041542B4D515454434F4E4E3F0D0A00006E
:1018F000706F736974696F6E5F42000041542B4DC5
:101900005154545355423D302C222573222C300D16
:101910000A00000041542B43574A41503F0D0A0032
:1019200000F0D4BAF0B5B9B006463F49684607F0B2
:1019300099FE3D4800243DA10470684607F07AFEF8
:1019400007004FF0FF356CD03294339434943594C3
:101950003794369435A10020389407F06BFE014689
:10196000384600F0A8FC00285BD1684630A107F09B
:1019700067FE044636AA2FA1401C07F097FD2CA154
:10198000601C07F05DFE2AA1401C07F059FE0446CA
:1019900040782C2845D033AB32AA27A1601C07F031
:1019A00085FD23A1601C07F04BFE21A1401C07F020
:1019B00047FE044640782C2833D035AB34AA1EA10C
:1019C000601C07F073FD1AA1601C07F039FE18A116
:1019D000401C07F035FE16A1401C07F031FE0446FE
:1019E00040782C281DD038AA12A1601C07F05EFD9B
:1019F0000FA1601C07F024FE37AA0EA1401C07F0BF
:101A000055FD329868B1339858B1349848B135983B
:101A100038B11C2232A9304607F099FE002039B0B7
:101A2000F0BD2846FBE70000FC1D00202A00000056
:101A30002C0000002564000025642E2564000000B1
:101A40007CB50D46064606236A4603213C20FFF777
:101A5000B0FCBDF8000040BA00B20BF0EFFF414C03
:101A600021460BF00DFF3060BDF8040040BA00B213
:101A70000BF0E4FF21460BF003FF28607CBD08B5A6
:101A8000FFF7AEFB00208DF8000001236A4602211B
:101A90003C20FFF75AFC08BD7CB501A96846FFF75A
:101AA000CFFF00980BF05EFE2F4A304B0BF070FD1D
:101AB0002F4A304B0BF046FB0BF03AF805460198E5
:101AC0000BF050FE2C4A2D4B0BF062FD2C4A2D4B97
:101AD0000BF038FB0BF02CF84FF400012A4E2B4A88
:101AE0008D421DDB88420BDB29460BF0C9FE0BF053
:101AF00039FE0AF071F8002233460BF023FB2CE08C
:101B000090420DD329460BF0BBFE0BF02BFE0AF0E2
:101B100063F8002233460BF015FB00221C4B1AE041
:101B200015F0FF4F08D1884201DB5A2418E090429B
:101B300002D34FF4877413E0954211D329460BF07A
:101B40009FFE0BF00FFE0AF047F8002233460BF021
:101B5000F9FA00220F4B0BF01DF80BF02FFA04B22C
:101B600020467CBD004088445342B0AA5E7EB33F0D
:101B70000DA5F622DA5E11401BA034D42824C3BF81
:101B8000BF1072DEFF07114000804C4000008080D3
:101B9000008076400080664008B5684602F034FD5B
:101BA00008BD08B5684602F068FD08BD08B56A467C
:101BB000082106F0BBFC08BD364810B500780128A6
:101BC00007D102F0AFFC06F00EFEBDE8104002F0B7
:101BD000B4BC10BD10B56FF0040000F08EFE2E48AE
:101BE0002E492F4B0068304CB0FBF1F2B0FBF1F006
:101BF0001A702C4A1168B4FBF1F1414310684FF49C
:101C00007A72B2FBF0F058804FF0E020026942F0A7
:101C1000020202614161016941F00101016110BDEF
:101C2000F8B54FF0E02700247E691D49097800FBD4
:101C300001F5684602F0E8FCB969B8698842FCD051
:101C400002D2A1EB000102E0A6EB000211440C4419
:101C50000146AC42F1D3684602F00FFDF8BD70B505
:101C600004460C48007878B11048007860B90C4DF3
:101C70006888844203D3B4FBF0F0FFF797FF6888CD
:101C8000B4FBF0F100FB11444FF47A706043BDE8FF
:101C90007040C5E7C50200201800002000127A003D
:101CA0006E02002004E7000840420F00C40200203A
:101CB00030B5012187B0880301F005FA0121042025
:101CC00001F001FA18208DF813004FF40070ADF800
:101CD00010007A4D03248DF8124004A9284600F024
:101CE00076FE48218DF813102815ADF810008DF8F8
:101CF000124004A9284600F06AFE4FF416500090E6
:101D000000200C21ADF80A10ADF806006C4CADF8BF
:101D10000C00ADF80800ADF804006946204600F05C
:101D200061FF012240F22551204600F0D8FF4FF418
:101D3000A06000F09DFD25208DF8140001218DF894
:101D400017108DF815108DF8161005A800F095FDE8
:101D50000121204600F0B9FF07B030BD10B5584C46
:101D60000146204601F007F88021204601F064F882
:101D70000028F9D010BD10B50446000EFFF7EEFFA5
:101D8000C4F30740FFF7EAFFC4F30720FFF7E6FFBD
:101D9000E0B2BDE81040E1E770B50D46064600240C
:101DA00004E0305DFFF7DAFF641CA4B2AC42F8D364
:101DB00070BD70B50546002403E0FFF7CFFF641C3B
:101DC000E4B2285D0028F8D170BD0346012000E090
:101DD0005843491EFCD270472DE9F04100240E46BD
:101DE00007460A250FE0311B0A20491EFFF7EDFFC9
:101DF000B7FBF0F0B0FBF5F105FB11003030FFF759
:101E0000ADFF641CE4B2B442EDD3BDE8F08170478D
:101E10002B490A885206FCD5294AC1B2121D1180ED
:101E200070470FB400B599B01BAA68461A9907F01D
:101E30006FF96846FFF7BDFF19B05DF814FB214844
:101E400000787047204870472DE9F04102F06AFBA6
:101E50001B4E40F225573946304600F0F7FF012867
:101E60001AD1304600F08BFF164C0025C0B2217805
:101E7000C82900D325700D280AD0232810D00A289D
:101E800010D02178C72903D20F4A5054491C217021
:101E90003946304600F0F9FFBDE8F04102F04DBB95
:101EA0002570F5E708492278A1F1C80007F00AFC7F
:101EB00005482178C8384554EAE700000008014089
:101EC0000038014072020020341D002010B50121AD
:101ED00086B0480401F000F90121042001F0F3F874
:101EE00048208DF817000820ADF8140003208DF865
:101EF000160005A93F4800F06AFD4FF41650009007
:101F000000200C21ADF80A10ADF806003A4CADF8EF
:101F10000C00ADF80800ADF804006946204600F05A
:101F200061FE012240F22551204600F0D8FE4FF418
:101F3000A06000F09DFC26208DF8100001218DF896
:101F400013108DF811108DF8121004A800F095FCF4
:101F50000121204600F0B9FE06B010BD0346012065
:101F600000E05843491EFCD270472448007870476F
:101F7000234870472DE9F04102F0D4FA1E4E40F29A
:101F800025573946304600F061FF01281AD1304606
:101F900000F0F5FE194C0025C0B22178C82900D305
:101FA00025700D280AD0242810D0154A0A280FD0F1
:101FB0002178C72902D25054491C21703946304635
:101FC00000F063FFBDE8F04102F0B7BA2570F5E715
:101FD000D0784D28F2D110794328EFD108492278E2
:101FE000A1F1C80007F06EFB05482178C8384554B8
:101FF000E4E70000000801400044004078020020AF
:10200000C41E002030B5012187B0880401F064F8B7
:102010000121082001F057F818208DF813004FF423
:102020008060ADF81000894D03248DF8124004A99A
:10203000284600F0CCFC48218DF81310E814ADF8C8
:1020400010008DF8124004A9284600F0C0FC4FF49F
:10205000E130009000200C21ADF80A10ADF8060028
:102060007B4CADF80C00ADF80800ADF804006946F3
:10207000204600F0B7FD012240F22551204600F035
:102080002EFE4FF4A06000F0F3FB27208DF8140023
:1020900001218DF817108DF815108DF8161005A870
:1020A00000F0EBFB0121204600F00FFE07B030BD31
:1020B00010B5674C0146204600F05DFE80212046A9
:1020C00000F0BAFE0028F9D010BD70B50D460646E6
:1020D000002404E0305DFFF7EBFF641CA4B2AC42C7
:1020E000F8D370BD70B50546002403E0FFF7E0FFAC
:1020F000641CE4B2285D0028F8D170BD03460120BD
:1021000000E05843491EFCD270472DE9F0410024FD
:102110000E4607460A250FE0311B0A20491EFFF72D
:10212000EDFFB7FBF0F0B0FBF5F105FB110030302F
:10213000FFF7BEFF641CE4B2B442EDD3BDE8F0810A
:102140000FB400B599B01BAA68461A9906F0E0FFD3
:102150006846FFF7C7FF19B05DF814FB3D484078AB
:1021600070473D4870472DE9F04102F0DBF9384EE9
:1021700040F225584146304600F068FE01281DD146
:10218000304600F0FCFD334C0025C0B26178C82910
:1021900000D36570304F2B2804D00D280AD00A28B0
:1021A00013D001E0617869B16178C72902D278540F
:1021B000491C61704146304600F067FEBDE8F041C1
:1021C00002F0BBB901202070F4E720780128607884
:1021D0003D5416D0E1780844801CC72802D91F4816
:1021E000E57005701C491D4807F060FA1CA11B48EA
:1021F00007F05CFAE07861780844801CE070657054
:10220000D8E718A1144807F01BFAB84213D119A156
:10221000114807F015FA17A1401C07F011FA15A193
:10222000401C07F00DFA411C407858B10A48C830EC
:1022300007F018FA06E010A1074807F001FAB842C3
:1022400000D1A57065702570B4E70000000C014056
:1022500000480040790200208C1F00201C21002033
:102260000D0A00004D515454535542524543563ABD
:10227000000000002C0000004D51545444495343C9
:102280004F4E4E45435445443A00000030B40023BD
:102290000D4600280DD0002D0BD0002201E0624039
:1022A0005B1CC45C002CFAD1284630BCFDA106F0B2
:1022B0004DBF30BC70477CB50E4601004FF00003A7
:1022C0004FF0FF351DD0E6B1002401E044405B1C17
:1022D000C85C0028FAD12246F2A1684606F036FF13
:1022E0003146684607F0AEFA00280BD02246EFA12F
:1022F000684606F02BFF3146684607F0A3FA00282F
:1023000000D028467CBD70B51C780834E4B204F1D6
:1023100008051C70182D08D31825B4FBF5F605FB2D
:1023200016441C7013785B1C13700B780124022B6D
:102330001BD0012B23D0032B21D0052B1FD0072B23
:102340001DD0082B1BD00A2B19D00C2B17D01378BB
:102350001E2B03D914700A78521C0A7009780C29B4
:1023600002D90178491C017070BD03789B0713786E
:1023700002D01C2BEED870BD1D2BEBD870BD13788E
:102380001F2BE7D8EAE710B5CA4ACB4B0AF0DAFEB2
:10239000BDE810400022C94B0AF0B8BC2DE9FC5F33
:1023A0000746DDE90C96884692469B4648463146EC
:1023B000FFF7E9FF04460D4638464146FFF7E3FFC5
:1023C00022462B460BF0E4F8CDE90001DDE90E01D1
:1023D000FFF7D9FF04460D4650465946FFF7D3FF95
:1023E00022462B460BF0D4F84FF0FF320BF035FCB1
:1023F0000AF0FCFA00224FF0804309F00BFE8346FE
:102400008A4648463146FFF7BEFF09F0B5FD04464F
:102410000D4638464146FFF7B6FF09F0ADFD2B46A5
:1024200022460AF08FFE5A4653460AF08BFE0446B7
:102430000D46DDE900014FF0FF320BF00EFC0AF013
:10244000D5FA00224FF0804309F0E4FD22462B46E6
:102450000AF0A0FB0AF01AFB09F086FA01220BF041
:10246000FCFB02B0964ABDE8F05F964B0AF06ABEEC
:102470002DE9FF5F82468B46DDE91001CDE90201BF
:102480009046994650465946CDE900ABFFF786FF86
:1024900004460D46DDE90E01CDE90001CDE90289D2
:1024A00042464B4650465946FFF778FFDDE9102378
:1024B00006460F46404649460AF042FF01D285F0E3
:1024C0000045DDE90E23504659460AF039FF01D296
:1024D00087F0004722462B463046394609F08CFCEF
:1024E0000022764B0AF02EFE04B0724ABDE8F05F7F
:1024F000714B0AF00BBCF0B505460078B9B00F4639
:102500004FF0FF3600285ED02946684607F0AAF84B
:1025100000242C706CA1684607F08CF8050052D09E
:1025200032943394349435943794369466A10020D1
:10253000389407F07FF801462846FFF7BCFE0028D4
:1025400041D162A1684607F075F800283BD036AA51
:102550005FA106F0ABFF5DA1002007F06BF832AA87
:102560005BA106F0A3FF59A1002007F063F833AA8E
:1025700057A106F09BFF55A1002007F05BF834AA95
:1025800053A106F093FF51A1002007F053F835AA9C
:102590004FA106F08BFF4DA1002007F04BF837AAA2
:1025A0004BA106F083FF329868B1339858B1349844
:1025B00048B1359838B11C2232A9384607F0C7F81F
:1025C000002039B0F0BD3046FBE70FB42DE9FF5FC6
:1025D000054608469046DDF85CB0DDF854900AF0F8
:1025E00061FD00223B4B0AF091FB06466424B5FBDB
:1025F000F4F004FB10500F460AF054FD32463B46FF
:102600000AF0C8FA0022344B0AF080FB0646B5FBFC
:10261000F4F00F460AF046FD32463B460AF0BAFA9D
:102620000AF086FA824611980AF03CFD0022294BF6
:102630000AF06CFB0E46B8FBF4F1054604FB118072
:102640000AF030FD2A4633460AF0A4FA0022224B53
:102650000AF05CFB0546B8FBF4F00E460AF022FDDA
:102660002A4633460AF096FA0AF062FA804616982D
:102670000AF018FD0022174B0AF048FB0E46B9FB82
:10268000F4F1054604FB11900AF00CFD2A4633468E
:102690000AF080FA0022104B0AF038FB05460E467D
:1026A0001CE0000025303258000000002530327850
:1026B0000000000050455254FB2109400080664054
:1026C0008D976E1223EAB8402A0000002C0000000B
:1026D000257800000088C34000004E40B9FBF4F0AC
:1026E0000AF0E0FC2A4633460AF054FA0AF020FACF
:1026F000054618980AF0D6FC0022364B0AF006FB75
:102700000F46BBFBF4F1064604FB11B00AF0CAFC0D
:1027100032463B460AF03EFA00222F4B0AF0F6FA08
:102720000646BBFBF4F00F460AF0BCFC32463B46C3
:102730000AF030FA0AF0FCF90BF014F804460F46E0
:1027400028460BF00FF80646894640460BF00AF87B
:102750000546884650460BF005F8CDE90247CDE91D
:1027600000698B46824643462A46FFF717FE1C9AAD
:102770004346C2E9000103970096CDE901942A4639
:1027800050465946FFF774FE1D9AC2E90001BDE8A4
:10279000FF1F5DF814FB70B586B00646DDE90A50F0
:1027A0000D9C03908DE80E0033462A460BA120466F
:1027B00006F0CCFC04A92046FFF768FDAFF2F80153
:1027C000204606F073FF04A9204606F06FFF06B00E
:1027D00070BD00000088C34000004E4025782C25C5
:1027E000782C25782C25782C25782C25780000004D
:1027F00010B5044645F2555000F0B4FC062000F038
:10280000B4FC20460AF04EFC0022084B0AF09AFC69
:102810000AF004FC80B200F0ABFC00F0ACFCBDE8B8
:10282000104000F0ADBC00F0A6BC00000088634082
:102830000948804709480047FEE7FEE7FEE7FEE754
:10284000FEE7FEE7FEE7FEE7FEE7FEE70448054990
:10285000054A064B70470000ED0C0008ED0000082B
:1028600010420020104E002010460020104600208C
:102870002849084328490860704730B50F23C278BB
:1028800001780125F2B1244A126801F1E02102F435
:10289000E062C2F5E062120AC2F10404D340427859
:1028A000A24084781C401443220181F8002400785F
:1028B00000F01F018D404009800000F1E020C0F8C9
:1028C000005130BD01F01F0085404809800000F133
:1028D000E020C0F8805130BD104A114001430E483D
:1028E000001F016070470C4A121D0029116801D0B9
:1028F000014300E08143116070474FF0E02104285C
:10290000086903D020F004000861704740F004001B
:10291000FAE700000000FA050CED00E080FFFF1F61
:102920008F4910B5884206D10121042000F0DDFB5B
:10293000002104203BE08B49884206D10121082078
:1029400000F0D3FB0021082031E08749884206D1FE
:102950000121102000F0C9FB0021102027E083494D
:10296000884206D10121202000F0BFFB0021202059
:102970001DE07F49884206D10121402000F0B5FBCF
:102980000021402013E07B49884206D101218020AC
:1029900000F0ABFB0021802009E0774988420AD192
:1029A00084150121204600F0A0FB00212046BDE84F
:1029B000104000F09ABB10BD10B50121084600F090
:1029C00094FB0021BDE81040012000F08EBBF0B563
:1029D000CC78002204F00F03E40601D58C78234361
:1029E0000C784FF00F0C14F0FF0F4FF0010E1BD0BE
:1029F00005680E880EFA02F42640A64210D1960011
:102A00000CFA06F725EA070703FA06F5CE783D43E8
:102A1000282E02D0482E02D002E0446100E004617A
:102A2000521C082AE5D305600A88FF2A1CD944688D
:102A3000002202F108060EFA06F50E882E40AE427C
:102A40000ED196000CFA06F7BC4303FA06F7CE78CF
:102A50003C43282E00D14561CE78482E00D1056137
:102A6000521C082AE5D34460F0BD4FF6FF71018087
:102A7000022181700421C1707047024600209268D3
:102A80000A4200D001207047806880B27047024639
:102A90000020D2680A4200D001207047C06880B28E
:102AA000704701617047416170470AB10161704729
:102AB00041617047C160704741F480328261816139
:102AC00082618169806970472C4B10B51A684FF696
:102AD0008074224042EA00100843186010BD284963
:102AE000C8617047F0B5254C002801DAE36900E0C1
:102AF0006368450D2E0185B2C0F30157B540C0F3A0
:102B00000342032F05D0C6020AD503269640B343DD
:102B100007E023F07062636823F07063636002E093
:102B2000AB4343F0706201B12A43002801DAE2614D
:102B3000F0BD6260F0BD10B58A0721F003040F49B3
:102B4000120F21440F238C6893409C438C608B6848
:102B5000904003438B6010BD0949C1F8DC00704709
:102B600000080140000C0140001001400014014029
:102B700000180140001C01400020014000000140FD
:102B800000002042C44910B588420AD101218C03BB
:102B9000204600F0AAFA2046BDE81040002100F0CF
:102BA000A4BABE49884202D101214C0410E0BC49BC
:102BB000884202D101218C040AE0BA49884202D13C
:102BC0000121CC0404E0B84988420AD101210C0556
:102BD000204600F093FA2046BDE81040002100F0A6
:102BE0008DBA10BD30B50446008A85B00D464CF64E
:102BF000FF710840E98801432182A0894EF6F31154
:102C00000840A9882A8911436A8902431143A18196
:102C1000A08A4FF6FF410840A9890143A182684676
:102C200000F006FA9C48844201D1039800E0029823
:102C3000A189090400EBC00101EB0010296801D54E
:102C4000490000E08900B0FBF1F06422B0FBF2F132
:102C500009010B096FF018056B4300EB8300A38992
:102C60001D044FF0320306D503EBC000B0FBF2F0B9
:102C700000F0070005E003EB0010B0FBF2F000F0FD
:102C80000F000843208105B030BD4FF4165101609C
:102C900000218180C18001810C22428181817047A5
:102CA00010B5028A4FF2FF031A400B884C88234369
:102CB0008C88C9880C4323431343038210BD002131
:102CC000018041808180C18070470029818902D0C4
:102CD00041F4005101E021F400518181704710B5A9
:102CE000C1F3421301F01F040121A140012B07D0C1
:102CF000022B07D01430002A026805D00A4304E0F2
:102D00000C30F8E71030F6E78A43026010BD002A65
:102D1000828A01D00A4300E08A4382827047028A95
:102D200022F00F020282028A0A43028270478289DD
:102D300022F40062828182890A43828170470029DD
:102D4000818902D041F0020101E021F0020181817C
:102D50007047028A22F020020282028A0A4302821B
:102D600070470029018A02D041F4804101E021F43A
:102D7000804101827047C1F30801818070478088DB
:102D8000C0F308007047818941F0010181817047DB
:102D9000028BD2B20283028B42EA01210183704787
:102DA000028B02F47F420283028B0A430283704744
:102DB0000029818A02D041F0200101E021F02001A8
:102DC000818270470029818A02D041F0100101E020
:102DD00021F01001818270470029818A02D041F0E0
:102DE000080101E021F008018182704700298189F2
:102DF00002D041F4004101E0C1F30E01818170472E
:102E00000029818A02D041F4006101E021F40061CF
:102E100081827047828A22F004028282828A0A4377
:102E2000828270470029818A02D041F0020101E0CC
:102E300021F00201818270470246002012880A4276
:102E400000D001207047C9430180704770B501F080
:102E50001F0501260024C1F3421306FA05F2012BD7
:102E60000FD0022B0FD0838A4FEA11210088134222
:102E700006FA01F600EA060001D000B1012420465E
:102E800070BD8389F0E7038AEEE70A0A01219140C9
:102E9000C9430180704700000038014000440040F1
:102EA00000480040004C004000500040A548016828
:102EB00041F0010101604168A34A1140416001688D
:102EC000A24A11400160016821F48021016041683B
:102ED00021F4FE0141604FF41F0181607047994960
:102EE0000A6822F480320A600A6822F480220A60AA
:102EF000B0F5803F07D0B0F5802F03D1086840F4CB
:102F0000A02008607047086840F48030F9E7034665
:102F1000002059098B4A01290AD002290AD0516A96
:102F200003F01F02012393400B4200D001207047A1
:102F30001168F5E7116AF3E718B500204FF4A064B3
:102F400000903120FFF7E3FF0099491C0091A14256
:102F500001D00028F5D03120FFF7D9FF002800D09C
:102F6000012018BD774A116821F0F80141EAC0003C
:102F700010607047764908607047724B5A68084382
:102F800022F47C12104358607047714908667047FC
:102F90006C4A516821F00301014351607047694850
:102FA000406800F00C007047664A516821F0F0015B
:102FB000014351607047634A516821F4E061014365
:102FC000516070475F4A516821F4605141EAC00086
:102FD000506070475B4A0029517A01D0014300E0FC
:102FE0008143517270475A49C1F8D8007047554A19
:102FF000516821F44041014351607047514900221A
:1030000081F8202081F82020012802D0042802D154
:10301000052081F8200070474E49086070474949F3
:103020000A6A02430A6270474A4944390860704795
:1030300030B5444A5168484B11F00C0103D00429C3
:1030400001D0082901D0036012E05168536801F4EF
:1030500070114FF0020413F4803F04EB914102D051
:1030600053689B0301D53D4B00E03B4B5943016046
:1030700051680F2303EA1111394B5C5C0168E14090
:1030800041605468072505EA14241C5D21FA04F404
:103090008460546805EAD4241B5DD940C16052683D
:1030A000032303EA92322E4B1B1F9A5CB1FBF2F111
:1030B000016130BD234A0029516901D0014300E07C
:1030C0008143516170471F4A0029916901D0014332
:1030D00000E08143916170471A4A0029D16901D00B
:1030E000014300E08143D1617047164A0029D1684D
:1030F00001D0014300E08143D1607047114A0029AB
:10310000116901D0014300E0814311617047114909
:103110004039086070470E49C86470470949C87152
:1031200070470848416A41F0807141627047054A22
:103130000146002092680A4200D0012070470149F0
:1031400088727047001002400000FFF8FFFFF6FE93
:10315000000042428004424200127A0000093D0011
:10316000810200200D49086070470C494860704793
:103170000A498860704709494AF6AA2008607047E2
:1031800006494CF6CC4008607047044A01460020CE
:10319000D2680A4200D00120704700000030004091
:1031A00000B585B06846FFF743FF019805B000BD44
:1031B00010B5FFF7F5FF11490A6842F080720A6006
:1031C0000F4900224A600A6842F001020A60BDE825
:1031D000104000F075B80A484068704710B50446C2
:1031E000FFF7DEFF0021074A0B4605F01AFF0246F3
:1031F0000B462046002105F014FF10BDFCED00E059
:10320000001000E040420F0010B500F0DFF8044667
:103210001021694800F0D8F92046BDE8104000F0C0
:10322000D9B8664910B500200860FFF7C1FFBDE8B6
:103230001040E9E7FEE770B505460C000ED075B109
:1032400000F0C4F8064610225B49284600F0C4FC92
:10325000304600F0BFF80020208070BDFEE70A2055
:10326000088070BD70B50C00054612D095B11021D4
:1032700000F0A4FC102810D200F0A8F80646102296
:1032800029464D4800F0A8FC304600F0A3F8002085
:1032900005E0FEE70A20088070BD4FF47A702080B8
:1032A00070BDFFF798BF7047020004D04348006824
:1032B00010B1002102E0FEE74FF4FA61118070477F
:1032C0003E490860704710B500F08BF8183810BD03
:1032D00010B500F086F8103810BD00F082B8F0B5D7
:1032E0000C0E0B0C0D0A0026354AD0F1FF378E412B
:1032F0001BD24FF6FF76D0F1FF378E410AD26FF026
:103300007F45D0F1FF308D4101D2105DF0BDD05C22
:103310000830F0BDFF23D0F1FF308B4102D2505D69
:103320001030F0BD505C1830F0BD4FF6FF74002334
:10333000241A8B4111D26FF07F440023241A8B4151
:1033400005D2000E40EA0120105C2030F0BD000CD8
:1033500040EA0140105C2830F0BD0023D0F1FF04AA
:103360008B4105D2000A40EA0160105C3030F0BDAC
:10337000105C3830F0BD08B100F036B80820704756
:1033800008B100F031B81020704708B100F02CB837
:103390002020704700B550EA01020BD0C243521CF6
:1033A000CB4343F1000310401940FFF798FFC0F1F1
:1033B0003F0000BD402000BDE42100209402002019
:1033C0000EE5000872B6704762B67047EFF31080E2
:1033D00072B6704780F31088704730BF704720BFC7
:1033E0007047B0FA80F0704790FAA0F0B0FA80F021
:1033F000704790FAA0F07047A0F14101192902D955
:103400006138192801D80120704700207047A0F1C9
:103410004101192905D92039192902D9303809283B
:1034200001D801207047002070476138192801D861
:1034300001207047002070474138192801D8012029
:103440007047002070473038092801D801207047A4
:10345000002070473038072801D80120704700202D
:103460007047A0F13001092905D91139052902D980
:103470006138052801D801207047002070472028B6
:1034800003D0092801D00020704701207047202870
:103490000BD00D2809D00A2807D00C2805D0092800
:1034A00003D00B2801D0002070470120704720383E
:1034B0005E2801D8012070470020704721385D2820
:1034C00001D80120704700207047A0F120015E293B
:1034D00016D8202814D00D2812D00A2810D00C2875
:1034E0000ED009280CD00B280AD021391A2907D36D
:1034F00020391A2904D330380A2801D30120704713
:103500000020704741B2002901DB1F2803D97F2822
:1035100001D00020704701207047A0F14101192916
:1035200000D82030C0B27047A0F16101192900D83D
:103530002038C0B2704700B50B46FFF7F5FF0246D2
:103540001846FFF7F1FF824201D1012000BD0020A3
:1035500000BD0000FD48FE490246C0E900120021FE
:103560008160C160016141618161C161016201638A
:10357000C162416200F148018163C1634FF480611F
:1035800001644164F3480260704710B500231C4693
:10359000641C41EA0323042CFAD310F0030404D181
:1035A00009E0521E00F8011B641C22B1042CF8D360
:1035B00001E008C0121F042AFBD202E000F8011B40
:1035C000521E002AFAD110BD0A460021DDE730B4B0
:1035D000814202D930BC00F0C5BD10441144401EE8
:1035E000491E431A042B28D300F0030301F00304FF
:1035F000A34201D1012400E00024F4B1032B07D140
:1036000009E05B1E11F8014900F801495BB2521E46
:103610000AB1002BF5DAC01EC91E04E051F80439C6
:1036200040F80439121F042AF8D2C01CC91C04E057
:1036300011F8013900F80139521E002AF8D130BCC6
:10364000704770B5034662B16BB161B11344114468
:10365000012003F0030401F00305AC4205D101256C
:1036600004E0012070BD002070BD0025DDB1BCB1BB
:1036700013F8015D11F8016DB54200D00020521E13
:10368000641E0128F0D1002AF1D109E053F8044D5D
:1036900051F8045DAC4200D00020121F01280AD16D
:1036A000042AF3D207E013F8014D11F8015DAC4292
:1036B00000D00020521E0128D6D1002AF3D170BDBF
:1036C00030B5C36BB3FBF2F402FB14340CB1121B24
:1036D00000E00022446C11448C4201D2002030BD35
:1036E0005D18611AC5631A444164104630BD10B5B7
:1036F000B0FBF3F403FB140000B1181AB2FBF3F4AF
:1037000003FB14240CB11B1B00E0002310441A44DB
:10371000491E02FB010010BD2DE9FC5F1F4614008D
:103720008A46834600D101AC0020884E2060FFF716
:103730004DFE009053465A460121D6F84480F06B66
:10374000FFF7D5FF054642F2E279404506D90098D9
:10375000FFF740FEA5EB0800206012E052465946F4
:103760003046FFF7ADFF0600009807D0FFF732FEA6
:1037700042F2107038803046BDE8FC9FFFF72AFE09
:103780002560A7F800900020F6E72DE9F0411646E5
:103790000D460446FFF71AFE6368996B01B96B4B3F
:1037A000DF6B5C6CFFF716FE012D06D9B7FBF5F059
:1037B00005FB107000B1281A241A42F210703080F4
:1037C0002046BDE8F0810A4601466048DDE7B8B111
:1037D000614A0260002242608260C260026142610E
:1037E0008261C2610262826242630263C2624262B9
:1037F0008263C2630264426442F2107008807047C0
:1038000042F21170FAE72DE9FF4F89B08A46DDE9EF
:103810001879044607B906AF0020386049462046AB
:10382000FFF7D5FFB9F80010A1F51C50103859D199
:103830004848006890B10020DFF810810290FFF73F
:10384000C5FD0590BAF100000BD002460B9800268A
:1038500013184048B3465B1E056848E042F2E77122
:103860003EE0D8F83C1003910423C34645461A466F
:103870000C990398FFF73BFF0399049008440890C4
:10388000DDE916230C99FFF732FF009000990498A8
:10389000464608440290D8F844100191884261D904
:1038A0000598FFF797FDDDE901103CE0A86B504556
:1038B00006D1D5F840C00B998C4501D12E4618E0B1
:1038C000296C0144491E834213D3824203D98B429F
:1038D00001D98A4209D80598FFF77CFD42F27F7131
:1038E000A9F800100DB0BDE8F08FAB46ED68002DD3
:1038F000DCD136B9C4E90EAA0B9820640B98264691
:10390000606404231A46D8F83C000C99FFF7EFFED8
:103910000490D8F844100191884206D90598FFF721
:1039200059FD01990498401A34E0F06B0890DDE9E4
:1039300016230C99FFF7DBFE0090716C0191884211
:1039400010D90598FFF746FD08E00000F42100209B
:1039500048454150980200204E4F4E45DDE9000198
:10396000401A46E00C98042280000146019040462F
:10397000FFF7A6FE039008B100201CE0D8F84440F1
:103980000598FFF727FDBAF1000F07D00198A04274
:1039900000D9001B386042F2E27054E00298F6E76A
:1039A000DDE916123046FFF78BFE90B1039941F81E
:1039B000280008F101000C9980468842F0D3A64205
:1039C00020D1C4E902B55FEA0B0016D0CBF80C4059
:1039D00015E0F56B746C0598FFF7FCFC0C98DDE9BD
:1039E0001623A0EB08012846FFF781FEA04200D96C
:1039F000001B386042F2D87025E06E4804603DB18B
:103A0000AC6005E07069C4E90460746100B10461F0
:103A10006948C4E900060898A0610099089808441C
:103A2000401EE061039820620098A06217986063CE
:103A3000169820630C98E0620C9860620598FFF776
:103A4000C9FC42F21070A9F800004BE770B50D46B2
:103A50000446FFF7BBFC646AFFF7BCFC42F210703F
:103A60002880204670BD70B515460446FFF7AEFCB1
:103A7000616A49B1E26A91420BD9FFF7ABFC42F2AD
:103A800095702880002070BDFFF7A4FC42F2DE7024
:103A9000F7E7491E6162226A52F82140FFF79AFC5B
:103AA00042F210702880204670BD70B514460E4654
:103AB0000546FFF78BFCEA6A911B491E42F2957698
:103AC0008A4202D96A6A8A4204D9FFF783FC2680B7
:103AD000002070BD2A6A52F82150FFF77BFC42F2A9
:103AE00010702080284670BD2DE9F04116460D4625
:103AF0000446FFF76BFCE76A626A8446BA4204D365
:103B0000FFF768FC42F2DD701EE04FF0000E134636
:103B1000206A04E050F82310A94205D05B1C9F42A4
:103B2000F8D8BEF1000F03D050F8221040F823104F
:103B3000D4E9080140F82150606A401C6062604688
:103B4000FFF748FC42F2107030803AE62DE9F04170
:103B500015460E4604464FF0FF37FFF737FC024686
:103B6000E16A606A884205D31046FFF733FC42F2EF
:103B7000DD701CE04FF0000C05E0236A53F82030A4
:103B8000B34205D0401C8142F7D8BCF1000F09D0E8
:103B90000C1A1046641EFFF71DFC42F210702880BC
:103BA00020460EE61046FFF715FC42F2887028808A
:103BB000384606E698020020504F4F4C002201E0A4
:103BC000401C521C18B103780BB18A42F8D310463E
:103BD00070474FF0FF31F1E730B5002811D089B1BF
:103BE0000346002405E0491C03F8015B641C4BB14B
:103BF00041B10D780DB19442F5D3944201D2002128
:103C0000197030BD002030BD4FF0FF32E4E730B511
:103C1000002816D0B1B1002A13D0034601E05B1C86
:103C200010D01C78002CFAD104E0491C03F8015B89
:103C3000641C3BB131B10D780DB19442F5D3002134
:103C4000197030BD002030BD4FF0FF32DFE7F0B516
:103C500032B330B111B304460B46401C491C002559
:103C600008E0E9B108784042F0BD401C491C5B1CEB
:103C7000641C6D1C26781F78BE4204D11EB110B1A1
:103C800009B19542F1D395420AD0F4B2FAB2944206
:103C900001D0B01AF0BD1EB10028E2D00078F0BD0E
:103CA0000020F0BD4FF0FF32D1E72DE9F0475FEA89
:103CB000020A41D070B181B10446461C0F464D1C2A
:103CC0000078FFF72AFC81463878FFF726FC4FF092
:103CD000000811E079B3087829E0007821E008F1C4
:103CE000010814F8010F6D1C761C7F1CFFF715FCF2
:103CF00081463878FFF711FC814505D1217819B14B
:103D000016B10DB1D045EAD3D04515D0494681450D
:103D100003D0A9EB0000BDE8F0870800FBD026B176
:103D20003078BDE8F047FFF7F8BB25B12878FFF7FA
:103D3000F4FB4042EFE7FFE70020ECE74FF0FF32F3
:103D4000B3E710B5002812D081B1002303E0401C76
:103D500003F101030BD004781CB1944201D08B42D3
:103D6000F5D38B4202D2E1B2914200D0002010BDC7
:103D70000A464FF0FF31E4E730B5154604000FD096
:103D800071B1491EFFF71AFF20180AD000E0401E4B
:103D9000A04202D00178A942F9D10178A94200D00D
:103DA000002030BD0A464FF0FF31E5E730B500286E
:103DB00003D00BB1044607E0002030BD8D4200D196
:103DC00022705B1E641CF8D02578002DF5D0002BE6
:103DD000F4D130BD4FF0FF33E8E72DE9F0418C46D8
:103DE000060032D0BCF1000F2FD072B3501C01D0AE
:103DF000511C01E04FF0FF310D4611463046FFF7F0
:103E0000DDFE044629466046FFF7D8FE050014D0C3
:103E1000A5421AD8301911D01CEB05000ED0671B33
:103E20000024301980462A466146FFF710FF010042
:103E300006D00020641C28B106E03046BDE8F081C1
:103E40000120F7E7BC42ECD909B10020F6E7404673
:103E5000F4E74FF0FF32C0E72DE9FF5F0746119806
:103E60000E9D1446894600286CD00026B246B9F152
:103E7000000F00D10126A01E232800D3012615B370
:103E80002846FFF714FB01281CD1302D1BD0A5F1CB
:103E90003000C1B20F98012802D0A5F1410001E025
:103EA000A5F16100C0B20A2C02D8A14206D307E0F6
:103EB0000A2903D3A4F10A01884201D2012000E0BB
:103EC000002000B10126119A56BBB846012003E03C
:103ED000B8FBF4F8401CC0B2A045F9D203990129FF
:103EE00000D0002100EB010CCC4518D84FF0000B9E
:103EF0004B46484500D318464DB1A9EB0000401A87
:103F00004B4610F0FF0F04D0302D04D001E00844E0
:103F1000C3B2002000E0012082460EB901E0012674
:103F20004B461099D01809B1002101700021401EA4
:103F300004E056B13F2200F80129491C9942F8D308
:103F40009EB3002004B0BDE8F09F27B919B1039AD1
:103F5000012A16D024E0B7FBF4F204FB1272D2B2AD
:103F60000A2A01D2303207E0DDF83CC0BCF1010F73
:103F700001D0373200E05732B7FBF4F700F80129DF
:103F8000DBE75AEA0B0205D0BAF1000F08D05A1E3F
:103F9000914205D12D2200F801294FF0010BCCE709
:103FA000002DCAD000F80159C7E7FFE71198C9E70B
:103FB0007FB50DF1200C9CE870008DE8780000239F
:103FC000FFF74AFF04B070BD2DE9FF411C46DDE953
:103FD0000B650A9F002802DA4042012300E000231B
:103FE000CDE90047CDE90265FFF736FF04B025E7CC
:103FF0002DE9FF5F1E4615465FEA0109824601D1A1
:104000000DF10809C9F800A00E9808B903A80E9090
:1040100000210170BAF1000003D0012D01D0242D40
:1040200001D900208EE70446007801E014F8010F62
:10403000FFF72DFA0128F9D020782B2803D02D285E
:1040400005D0002007E04FF0000B641C04E0012EB7
:1040500000D1641C01208346019425B1082D11D0A4
:10406000102D22D112E02078302801D00A251CE042
:1040700014F8010F582803D0782801D0082514E03F
:1040800010250CE0207830280ED00EE02078302863
:104090000BD114F8010F582801D0782805D1607889
:1040A000FFF7DFF9012800D1641C0026B046009616
:1040B00027783846FFF7ABF9012824D13846FFF7B7
:1040C000C2F901280CD03846FFF7AFF9012809D012
:1040D000373FF9B2A94216D2B8F1000F04D00EE072
:1040E000303FF6E7573FF4E71D4850F82500B0424F
:1040F00003D306FB05168E4201D24FF0010800984B
:10410000641C0028D4D0B8F1010F01D14FF0FF3664
:104110000198844202D0C9F8004001E0C9F800A02B
:104120000E99304681F800B00CE708B500230093E3
:10413000FFF75EFF08BD1CB501AB00930123FFF73D
:1041400057FF9DF804204FF0004122B1884200D271
:10415000414208461CBD8842FCD36FF000401CBDA4
:1041600010E60008002800D17047002900D17047F0
:10417000002A00D170472DE9F81F00F0030301F079
:104180000304A34211D1C3F1040303F00303012B81
:104190001DD3012A00D2F2E011F8014B00F8014BC7
:1041A000A3F10103A2F10102F1E700F0010301F024
:1041B0000104A34200D094E0012B44D311F8014B39
:1041C00000F8014BA3F10103A2F10102F4E7B2F5FB
:1041D000B47F26D3B1E8F81FA0E8F81FB1E8F81FB4
:1041E000A0E8F81FB1E8F81FA0E8F81FB1E8F81F31
:1041F000A0E8F81FB1E8F81FA0E8F81FB1E8F81F21
:10420000A0E8F81FB1E8F81FA0E8F81FB1E8F81F10
:10421000A0E8F81FB1E8F81FA0E8F81FA2F5B472F3
:10422000D5E7282A06D3B1E8F81FA0E8F81FA2F1C5
:104230002802F6E7042A06D351F8043B40F8043B71
:10424000A2F10402F6E7202A42D331F8023B20F81B
:10425000023B31F8023B20F8023B31F8023B20F8E8
:10426000023B31F8023B20F8023B31F8023B20F8D8
:10427000023B31F8023B20F8023B31F8023B20F8C8
:10428000023B31F8023B20F8023B31F8023B20F8B8
:10429000023B31F8023B20F8023B31F8023B20F8A8
:1042A000023B31F8023B20F8023B31F8023B20F898
:1042B000023B31F8023B20F8023B31F8023B20F888
:1042C000023B31F8023B20F8023BA2F12002BAE7A0
:1042D000022A06D331F8023B20F8023BA2F1020287
:1042E000F6E7102A42D311F8013B00F8013B11F820
:1042F000013B00F8013B11F8013B00F8013B11F8CC
:10430000013B00F8013B11F8013B00F8013B11F8BB
:10431000013B00F8013B11F8013B00F8013B11F8AB
:10432000013B00F8013B11F8013B00F8013B11F89B
:10433000013B00F8013B11F8013B00F8013B11F88B
:10434000013B00F8013B11F8013B00F8013B11F87B
:10435000013B00F8013B11F8013B00F8013B11F86B
:10436000013B00F8013BA2F11002BAE7012A06D393
:1043700011F8013B00F8013BA2F10102F6E7BDE8AC
:10438000F81F704770470000F64CF74DFFF71EF816
:104390002168491C21602968491C2960FFF71AF827
:1043A00004F07AFDF2E700B5EE4A89B00021116011
:1043B0000B2205910691CDE90720EC48EC4AED4B24
:1043C000006812681B680292CDE903013F20CDE925
:1043D00000030023AFF24F02E7A1EC4803F049F8D5
:1043E00009B000BD0020EA4B024600EB400103EBA0
:1043F0008101401C0A810A60C0B24A604028F4D39F
:10440000704710B5044604F04DFDE24800220A2131
:104410000270E1480270E1480270E1480260E14840
:104420000260E1480270E1480270E1480270E14830
:104430000260E1480260E1480260E1480270E14840
:104440000068B0FBF1F0E0490860E049086830B16D
:10445000DF48006818B1096804C0491EFCD1DD4876
:104460000260DD480260DD480260DD480260DD4830
:104470000260DD480260DD480260DD48027001F044
:104480002DFFFFF7AFFF204601F08DF820880028B0
:1044900047D1204601F0D9FA2088002841D1204692
:1044A00001F0FCFA208800283BD1204601F0FFFEF5
:1044B0002088002835D1204602F03CFA20880028C8
:1044C0002FD1204602F0E4FC2088002829D1204684
:1044D00003F05AFE2088002823D1204601F062F91B
:1044E000208800281DD12046FFF75DFF2088002886
:1044F00017D1204603F048FF2088002811D120461C
:1045000002F051FE208800280BD1204604F034FC34
:104510002088002805D100F0A5FCBDE81040FFF779
:1045200031BF10BD9C480078012805D19949087811
:10453000FA2801D2401C08707047974810B50078DF
:1045400001282BD1FEF742FF92490446087800B3B8
:10455000401E10F0FF0008701BD190480078C0B9D1
:1045600001F0C5FE91490870894900EB400051F8FF
:1045700020008C4908608A490968884209D050F8AF
:10458000901F491C01609B480168491C016006F0AE
:1045900069FE2046BDE81040FEF71CBF10BD7D48F7
:1045A00010B50078002824D17C480078002820D15C
:1045B000FEF70CFF044601F09AFE7C49087074492E
:1045C00000EB400051F82000764908607449096802
:1045D000884209D050F8901F491C01608548016845
:1045E000491C016006F039FE2046BDE81040FEF788
:1045F000F1BE10BD694810B50078012803D1FEF75F
:10460000EAFD6C49086010BD70B504466148007849
:1046100010B146F6625019E05F480078012802D0D8
:1046200045F6896012E05D4D2878FA2802D345F2FC
:1046300009200BE0FEF7CAFE06462878401C2870C9
:10464000FFF7D8FF3046FEF7C5FE0020208070BD82
:10465000524810B5007800280ED1FEF7BCFD554930
:104660000968401A54490A68824200D208605349D6
:104670000A68824200D2086010BD70B50446454801
:10468000007810B146F6655023E0434800780128D1
:1046900002D045F689601CE0404E307870B1FEF7DC
:1046A00095FE05463078401E10F0FF00307008D0AF
:1046B0002846FEF78FFE46F663500AE046F6645041
:1046C00007E0FFF7C5FF2846FEF784FEFFF767FF08
:1046D0000020208070BD2DE9F04116460C460746AB
:1046E000FEF774FE36490025012F01D00D7001E060
:1046F00001220A7034490CB10C6005E0314A0A23EA
:104700001268B2FBF3F20A60FEF764FE3580BDE882
:10471000F08110B50189002914D0012912D000249C
:10472000022907D0D0E90013CA681461C1E9034324
:10473000D96005E0D0E90012C1E90342C2E90314DF
:10474000C0E9002110BD70B504461248007810B1D0
:1047500048F2D14079E01148007810B146F6635034
:1047600073E049E0C002002024030020B8E60008FE
:10477000B4E60008B0E6000875432F4F532D4949B1
:10478000492049646C65205461736B00CC3A002069
:10479000603C0020C4020020C50200200C03002061
:1047A0006403002068030020F2020020F3020020CE
:1047B000F40200200003002004030020080300206E
:1047C0001403002004E7000810030020DCE60008C2
:1047D000D8E60008A4020020A8020020AC020020B5
:1047E000B0020020B4020020B8020020BC02002069
:1047F0004203002038030020F7480078012802D047
:1048000046F67B1021E0FEF7E1FD0646F348F44949
:10481000007800EB400001EB80052889022805D2D2
:104820003046FEF7D7FD46F67A100EE02846FFF731
:1048300070FF2868416D09B9EA4909688165304609
:10484000FEF7C8FDFFF7ABFE0020208070BD70B5FD
:10485000E54D0446287818B145F68A60208070BD81
:1048600001F045FDE1490870DC490870DC4900EBC6
:10487000400051F82000DE490860DE490860012050
:10488000287006F0D9FC43F69920E7E70021018063
:1048900047F25C60704738B14268C1F8C020816857
:1048A0008968096AC161704791F83400022803D011
:1048B000072803D0D0A002E0D0A000E0D1A0C1F82A
:1048C000C000704730B58A68002592F837400289E9
:1048D0001AB1521C028102680BE0012202814D6074
:1048E0000D60016014E0936893F83730A34203D859
:1048F0005268002AF7D107E032B1136853B1C1E919
:1049000000325960116030BD4D6042680A605160EC
:10491000416030BD1160C1E90052016030BD10B589
:10492000C2870024234601630EE04B6041F8103B30
:10493000641C41F8103BA4B241F80C3C21F8083C3F
:1049400041F8043C41F8180C9442EED310BD70B508
:10495000044690F83700A24900EB400001EB8001CB
:10496000D4E90320002540B10B895B1E0B81C26096
:1049700092B110612561E56070BD2AB10889401EC1
:10498000088115610A60F5E70D810D604D6094F8AE
:10499000370001F0CAFCEDE74860EBE738B50446A4
:1049A000022531B16B46022203F027FDBDF800005D
:1049B00028B184F836502046FFF7C9FF38BD0320E0
:1049C00084F83600F7E72DE9F0418A4D07460C469A
:1049D00028680026194680F8342080F83560FFF7F3
:1049E000DDFF64B1FC6004F1080601223946286845
:1049F000FFF795FF39463046FFF764FF02E028686D
:104A0000C687066320462968BDE8F04143E710B534
:104A100002890024012A0BD00A6862B14B6873B185
:104A200053601A600289521E02814C600C6010BDF6
:104A300004604460F6E74A6814600260F2E754607C
:104A40004260EFE770B50646C58F046B07E0E0688B
:104A500021460830FFF7DBFF6D1EADB22034002D7C
:104A6000F5D10020F087306370BD10B50B6BC98F96
:104A700008E0DC68844202D1DA61186110BD491E89
:104A800089B220330029F4D110BD90F83710544A70
:104A900001EB410102EB810100230A8942B1521C62
:104AA0000A810A68C0E903230A6810610860704738
:104AB00001220A81C360036108604860704790F872
:104AC0003710474A01EB410102EB810100230A89BB
:104AD0003AB1521C0A81C3604A680261D0604860E2
:104AE000704701220A81C36003610860F7E710B5CF
:104AF000044690F8370001F00AFC384994F8370072
:104B000009788842204602D1BDE81040D7E7BDE8C9
:104B10001040BAE710B5044603F060FB94F8361075
:104B2000490703D42046BDE81040E0E710BD2DE959
:104B3000F041064691F8360000270C4615464FF026
:104B40000108082835D2DFE800F034340404343496
:104B50001A1A94F83400032803D121463046FFF78F
:104B600084FFE765A4F86070256416B12046FFF75E
:104B700069FF2046FFF7CEFF84F8367015E094F801
:104B80003400032803D121463046FFF76EFFE76566
:104B9000A4F86070256416B12046FFF753FF204645
:104BA00003F01CFB042084F8360084F8358084F878
:104BB0003470ACE516A2C1F8C020816811B18968D3
:104BC000096A00E012A1C161704770B580F8371022
:104BD000C58F046B2EE0000014030020F2020020B9
:104BE000603C002010030020C5020020F3020020DA
:104BF0006803002064030020200000005461736BF0
:104C0000205100005461736B2053656D000000005B
:104C100020000000E668308A0836012807D92146BE
:104C20003046FFF7F4FE21463046FFF74BFE6D1E7F
:104C3000ADB22034002DEDD170BD00210160416086
:104C4000018170470289521C028102684A60002279
:104C50000A60026802B1116001600289012A00D174
:104C60004160704710B50B6BC98F08E0DC68844267
:104C700002D1DA61186110BD491E89B220330029C2
:104C8000F4D110BD2DE9F0410C4691F83610002505
:104C900002261746082933D2DFE801F03232040435
:104CA0003232191994F83410032903D13A462146B7
:104CB000FFF7D8FFE565A4F8605020462764FFF7AA
:104CC000C1FE2046FFF726FF84F8365014E094F822
:104CD0003410032903D13A462146FFF7C3FFE565A7
:104CE000A4F860502046276403F078FA2046FFF7C6
:104CF000A9FE042084F8360084F8356084F8345026
:104D000005E570B50C6B049DC98F0AE0E668864224
:104D100004D1C4E904022383E56170BD491E89B250
:104D200020340029F2D170BDF8B50C46054691F843
:104D300036100026069808293BD2DFE801F03A3AFF
:104D400004043A3A202094F83410032911D0E26583
:104D5000A4F86030206435B12046FFF773FE214689
:104D60002846FFF727FF2046FFF7D4FE84F8366079
:104D70001BE0009021462846FFF7C3FFEBE794F8BD
:104D80003410032916D0E265A4F860302064204670
:104D900003F024FA35B12046FFF754FE2146284699
:104DA000FFF708FF042084F8360084F8356084F8A3
:104DB0003460F8BD009021462846FFF7A2FFE6E7E1
:104DC00010B5FEF703FB1F490446002008701F487A
:104DD0001D49016051F8900F401C08601C4908688B
:104DE000401C086006F039FA2046BDE81040FEF786
:104DF000F1BA70B5054617480078012820D1FEF7B2
:104E0000E5FA04462868B0B11349884213D0816D91
:104E100011B1491E81650ED1288902280BD30F4894
:104E2000007840B92846FFF774FC2868416D09B93D
:104E30000B49096881652046BDE87040FEF7CABA93
:104E400070BD0000F3020020903B002068030020AA
:104E50003803002014030020CC3A00200C0300206B
:104E600010030020704700000023FF4AFDA14361AA
:104E7000C161116819B18161486110607047836137
:104E8000FBE72DE9F0410446F84890460F460078CC
:104E90001D4610B142F6E16025E014B3FEF796FA24
:104EA000F34E3178491C3170FEF794FAF148C4E9A9
:104EB00000070027C4E9088704F10800FFF7BDFEDA
:104EC0002046FFF7D1FFEC490888401C0880FEF718
:104ED0007DFA3178491E3170FEF77CFA2F80BDE8EB
:104EE000F08145F6C3501880F9E7E44902C0E4A117
:104EF00002C000218161FFF7A0BED0E90521002397
:104F00002AB151B191614A61836143617047D64AC8
:104F1000116001B14B61836170479361F5E72DE941
:104F2000F05F8046D14814468946007810B143F2BC
:104F3000C92013E0B8F1000F06D0080007D00129FE
:104F400005D045F6256009E045F6C35006E0C9499D
:104F5000D8F80000884205D045F6C45010800020E3
:104F6000BDE8F09FFEF732FAC14F3978491C39701D
:104F7000FEF730FAB8F810505FEA0900DFF8F8B22F
:104F8000DFF8049308F10806AA460AD0012842D0A7
:104F9000FEF71CFA3978491E11F0FF0139705DD017
:104FA00064E05FEA0A0008D0FEF710FA3978491E7B
:104FB00011F0FF0139701FD026E04046FFF79DFF3A
:104FC000BBF800104046491EABF80010FFF78DFFFC
:104FD000FEF7FCF93978491E11F0FF01397007D14D
:104FE000B9F8001021B1FEF7F5F9FFF7E9FE01E08D
:104FF000FEF7F0F900200BE0B9F8001021B1FEF740
:10500000E9F9FFF7DDFE01E0FEF7E4F947F25F1092
:1050100020805046A4E7FEF7DEF8814607E03068BE
:105020004A4681684046FFF72DFE6D1EADB2002D49
:10503000F5D14046FFF761FFBBF800104046491E1E
:10504000ABF80010FFF751FFFEF7C0F93978491EA1
:105050003970FEF7BFF9FFF7A2FACBE7B9F80010F5
:1050600021B1FEF7B7F9FFF7ABFE01E0FEF7B2F9A9
:1050700045F62560CCE730B4844C029D246844F8A2
:10508000802F0022238162602B4630BC0122FFF773
:105090009ABC2DE9FF4F05468BB07448DDE91864D2
:1050A00000781F46894610B146F2AE1007E1ADB157
:1050B00048F20101781A8F4229D019DC40F201111F
:1050C000A7F201108F4222D00BDC012F1FD0022F3C
:1050D0001DD0042F1BD0082F16D118E045F6C35061
:1050E000EDE0012813D0032811D007280CD10EE0E1
:1050F000B0F5807F0BD0F4DDA0F58070013806D0CC
:10510000022804D0062802D045F62560D7E0594988
:105110002868884202D045F6C450D0E0F80501D591
:10512000012000E0002080464FF0000B0EB1C6F8D1
:1051300000B007F00F010991FEF748F909994C4AB0
:105140004FF0010E012934D0022938D0042902D0B1
:1051500008296ED123E0296A01EA090ACA4524D048
:1051600011E021EA0A0135E0484A1268C2F884A039
:105170000EB1696A3160FEF72DF9A4F800B050460F
:105180000FB0BDE8F08F390426D5FEF723F946F2BB
:10519000B01094E0FEF71EF946F663508FE0296ADE
:1051A00001EA09035FEA030AEDD0B8F1000FDBD092
:1051B000D7E7296A29EA010ACA4506D0E3E7296A3E
:1051C00029EA01035FEA030ADDD0B8F1000FCBD072
:1051D00041EA0A012962C7E711780029DAD192462B
:1051E00082F800E0FEF7F6F80D9800903B464A463C
:1051F000294601A8FFF73FFFFEF7E8F89AF80010EC
:10520000491E8AF80010FEF7E5F8FFF7C8F9FEF727
:10521000DDF81E4B1A6892F8351059B1012937D0C4
:10522000022945D003293BD0FEF7D4F846F62E607C
:1052300045E014E00EB1116C3160A4F800B01968BB
:105240005F46B8F1000FD1F8846041D00999012977
:105250003BD0022939D0042934D0082932D0FEF7B6
:10526000B9F851E720000000DC020020C402002051
:105270000C030020464C4147E00200204E4F4E45B3
:105280003F464C4147000000D0020020640300204C
:105290000EB1116C3160FEF79DF846F2A9100EE0D8
:1052A0000EB1C6F800B0FEF795F847F2D92006E037
:1052B0000EB1116C3160FEF78DF845F6C2502080BA
:1052C00000205DE7296AB14301E0296A3143296280
:1052D000FEF780F82780304652E72DE9F05F8046E0
:1052E000B4480F461446007810B146F2AA1012E0F6
:1052F000B8F1000F0DD04FF4807A77B157450CD03C
:10530000B7F5004F09D0B7F5014F06D045F6256037
:1053100001E045F6C350108021E0A749D8F800000D
:10532000884202D045F6C450F5E7FEF74FF8B8F8CA
:10533000101008F1080569B1DFF8809299F8002093
:10534000521C89F80020FEF745F80026FDF743FFC0
:10535000834610E0FEF73EF846F2AB1020800020B6
:10536000FEE528685A4681684046FFF7E0FB761C58
:10537000B6B2574502D128890028F2D1FEF726F8A7
:1053800099F80020521E89F80020FEF723F838040F
:1053900001D4FFF704F9002020803046E0E570B525
:1053A00004468448007820B146F2AE1020800020E8
:1053B00070BDFEF70BF882490968D1F88450FEF7FA
:1053C00009F800202080284670BD70B50025C0F87F
:1053D000841080F8355080F834500446026490F808
:1053E000360008280ED2DFE800F00D0D04040D0D84
:1053F0000A0A2046FFF78EFB84F8365002E00420AC
:1054000084F836002046BDE87040FFF71BBB2DE94D
:10541000F0479A4690460D460446089EFDF7D6FF93
:1054200001465FEA080022D0012807D0B0F5004FFE
:105430001DD06FF4004218EB020F12D1206AA8436E
:10544000C4E9080A208A04F108054FF0000988B170
:105450005A4F3878401C38700846FDF7BBFF2D685E
:1054600041E00846FDF7B6FF45F625605FE0206A9B
:105470002843E5E70846FDF7ADFFA6F80090206A4F
:10548000BDE8F08790F888106D6801F00F010129E0
:1054900018D002291ED004290AD008290DD0FDF702
:1054A00095FF3978491E11F0FF01397033D03AE089
:1054B000216AD0F88020114009E0216AD0F88020CC
:1054C00011400BE0D0F88010236A0A4699438A42C3
:1054D00005D007E0D0F88010226A914311B15246FE
:1054E000FFF773FF15B1A8680028CBD1FDF76EFF59
:1054F0003978491E3970FDF76DFF5FEA084001D425
:10550000FFF74DF8FDF762FF246AFDF763FFA6F889
:1055100000902046B4E72B49098821B1FDF75AFFD6
:10552000FFF74EFC01E0FDF755FF43F6FF2030800A
:105530000020A5E72DE9FF411546884606001C46D8
:105540000DD07DB1012D0DD0B5F5004F0AD06FF40F
:105550000040C54206D045F62560188019E045F6A2
:10556000C350FAE7144F3068B84202D045F6C45031
:10557000F3E7FDF730FE03460E48007860B1CDE951
:105580000234CDE9008500231A463146384600F042
:105590001FF8002004B0A2E42A4641463046009499
:1055A000FFF735FFF6E7084A00211160074A11802E
:1055B00001807047C4020020464C41470C03002084
:1055C00064030020D0020020DC020020E002002062
:1055D0002DE9F05F1E46DDE90AAB90460F46814695
:1055E0000D9CFDF7F3FEA049A04A054608881288E5
:1055F00090422BD2401C80B208809D490A8882428A
:1056000000D208809B4A1068C0F80090C0E9027878
:105610000682C0F814A0A0F818B00C99C1614068C7
:10562000106095480121018194490160416000208A
:1056300000F06DFE9248007808B192490870002091
:1056400020802846BDE8F05FFDF7C4BE8E48018883
:10565000491C018044F25360F2E73EB58B4C8C4A02
:1056600002AB206801688D1A914245D015DC894A49
:1056700089182DD0884A891822D0884A891832D0B2
:10568000874AD14208D1C169CDE90013038B028A50
:10569000C168806802F088F93EBD824969181DD052
:1056A000814A891823D0814AD142F5D1C169CDE917
:1056B0000013038B028AC168806801F091F83EBD37
:1056C0000093028BC36941698068FFF7A0FE3EBD6D
:1056D000018BC269806801F016FB3EBD80681946E7
:1056E00002F04BFA3EBD018BC269806822E08068FF
:1056F000194602F0B8FC3EBD62485F49007800EBF5
:10570000400001EB8000FFF774FB206802AB002132
:10571000C269674802F094FB66490868401E086049
:10572000E9D1654800680860FDF755FD024602AB07
:105730000021624802F084FB3EBD614F4A4C0025C7
:10574000DFF84881FDF742FE06462088E8B1304682
:10575000FDF740FEFDF73FFD0646FFF77EFFFDF734
:105760003AFD3968801B814200D23860FDF72EFE79
:10577000D8F800205268C8F800202188491E2180EE
:10578000FDF728FE002DDDD0D9E73B490020088138
:105790000860486000F0C9FD3046FDF71BFEFEF7CB
:1057A000FEFECCE7F0B53849464D89B000240C80A8
:1057B000296831B12D4E3188022905D244F2546155
:1057C00035E044F2526132E03D4900233E4F0C6027
:1057D000296801F1200210E041F8087B5B1C41F8C8
:1057E000084B9BB241F8044C21F8104B41F80C4C8B
:1057F00021F8084C41F81C2C2032B6F800C0634553
:10580000EAD32A6841F81C2C1A490A601F490A6029
:1058100015492E4A0C8016490C80116851B12C494B
:105820002C4D0B682D68AB4207D244F256610180C3
:1058300009B0F0BD44F25561F9E7032305940694DD
:10584000CDE9073008682449126800230968CDE9CA
:1058500003040094CDE90121AFF221121FA10748F2
:1058600001F007FEE4E70000D0020020A8E60008EF
:10587000D2020020C8020020603C0020903B0020A3
:10588000F2020020F4020020D4020020CC0200200A
:105890005449434BADBAB2BE0DF90BFAF2F8F7FF1B
:1058A0000006F6FF00F7FDF700FFEFFF03FE0FFE17
:1058B00024400020600300205C030020E84000201A
:1058C000D8020020C0E600084E4F4E45C8E600084A
:1058D000D0E6000800E70008CCE6000875432F4F2B
:1058E000532D49494920495352205175657565200A
:1058F0005461736B00000000574B002282611968ED
:1059000019B1C161886118607047C261FBE72DE978
:10591000F05F04465148DDE90A750078984616465E
:105920008B4610B145F2B96014E045F2BB615EB13F
:10593000B8F1020F01D2481C0CE045F2C160042FFF
:1059400008D316F0030F02D02980BDE8F09F17F0AE
:10595000030F01D02880F8E7A8F101018BB232468D
:10596000002104E0D0191060491C024689B2994216
:10597000F8D34FF0000AC2F800A0FDF727FDDFF8CA
:10598000E09099F80010491C89F80010FDF722FDFD
:10599000344884E84108E660A4F81480A4F8128032
:1059A00027822046FFF7A8FF2F480188491C018065
:1059B000FDF70CFD99F80010491E89F80010FDF75D
:1059C00009FDA5F800A0C0E770B504000D460ED093
:1059D000FDF7FCFCA18A71B1E668491E3268E260FD
:1059E000A182FDF7F7FC00202880304670BD45F20B
:1059F000BF60088004E0FDF7EDFC45F2C26028803E
:105A0000002070BD70B50E46040015460BD06EB177
:105A1000FDF7DCFCA18A628A91420BD3FDF7DAFC28
:105A200045F2BA600FE045F2BF6001E045F2BE60AA
:105A3000108070BDE1683160E660A18A491CA182D6
:105A4000FDF7C8FC0020288070BD034A00211160CA
:105A5000054A118001807047E4020020C402002042
:105A60000C0300204D454D20E802002010B5491ED2
:105A70008CB2002100F110020B4608E0E0E802239E
:105A8000491C20F8083B89B240F8043C1032A1427E
:105A9000F4D3036043600381C36010BD70B5524D01
:105AA0000446286880B1514E308880B181B22868A0
:105AB000FFF7DCFF4E4829680160318881800021B2
:105AC000C1800181218070BD45F21E7001E045F268
:105AD0001D70208070BD10B5428992B144490368A1
